{
  "contractName": "ERC20FDIC",
  "abi": [
    {
      "inputs": [],
      "stateMutability": "nonpayable",
      "type": "constructor"
    },
    {
      "anonymous": false,
      "inputs": [
        {
          "indexed": true,
          "internalType": "address",
          "name": "bank",
          "type": "address"
        }
      ],
      "name": "BankFailed",
      "type": "event"
    },
    {
      "anonymous": false,
      "inputs": [
        {
          "indexed": true,
          "internalType": "address",
          "name": "bank",
          "type": "address"
        }
      ],
      "name": "BankRegistered",
      "type": "event"
    },
    {
      "anonymous": false,
      "inputs": [
        {
          "indexed": true,
          "internalType": "address",
          "name": "bank",
          "type": "address"
        }
      ],
      "name": "BankUnfailed",
      "type": "event"
    },
    {
      "anonymous": false,
      "inputs": [
        {
          "indexed": true,
          "internalType": "address",
          "name": "depositor",
          "type": "address"
        },
        {
          "indexed": true,
          "internalType": "address",
          "name": "bank",
          "type": "address"
        },
        {
          "indexed": true,
          "internalType": "address",
          "name": "token",
          "type": "address"
        },
        {
          "indexed": false,
          "internalType": "uint256",
          "name": "amount",
          "type": "uint256"
        }
      ],
      "name": "CompensationPaid",
      "type": "event"
    },
    {
      "anonymous": false,
      "inputs": [
        {
          "indexed": true,
          "internalType": "address",
          "name": "depositor",
          "type": "address"
        },
        {
          "indexed": true,
          "internalType": "address",
          "name": "bank",
          "type": "address"
        },
        {
          "indexed": true,
          "internalType": "address",
          "name": "token",
          "type": "address"
        },
        {
          "indexed": false,
          "internalType": "uint256",
          "name": "amount",
          "type": "uint256"
        }
      ],
      "name": "DepositMade",
      "type": "event"
    },
    {
      "anonymous": false,
      "inputs": [
        {
          "indexed": true,
          "internalType": "address",
          "name": "regulator",
          "type": "address"
        }
      ],
      "name": "RegulatorAdded",
      "type": "event"
    },
    {
      "anonymous": false,
      "inputs": [
        {
          "indexed": true,
          "internalType": "address",
          "name": "regulator",
          "type": "address"
        }
      ],
      "name": "RegulatorRemoved",
      "type": "event"
    },
    {
      "inputs": [
        {
          "internalType": "address",
          "name": "",
          "type": "address"
        }
      ],
      "name": "banks",
      "outputs": [
        {
          "internalType": "bool",
          "name": "isRegistered",
          "type": "bool"
        },
        {
          "internalType": "bool",
          "name": "isFailed",
          "type": "bool"
        }
      ],
      "stateMutability": "view",
      "type": "function",
      "constant": true
    },
    {
      "inputs": [
        {
          "internalType": "address",
          "name": "",
          "type": "address"
        },
        {
          "internalType": "address",
          "name": "",
          "type": "address"
        },
        {
          "internalType": "address",
          "name": "",
          "type": "address"
        }
      ],
      "name": "deposits",
      "outputs": [
        {
          "internalType": "uint256",
          "name": "amount",
          "type": "uint256"
        },
        {
          "internalType": "uint256",
          "name": "insuredAmount",
          "type": "uint256"
        },
        {
          "internalType": "address",
          "name": "token",
          "type": "address"
        }
      ],
      "stateMutability": "view",
      "type": "function",
      "constant": true
    },
    {
      "inputs": [
        {
          "internalType": "address",
          "name": "",
          "type": "address"
        }
      ],
      "name": "isRegulator",
      "outputs": [
        {
          "internalType": "bool",
          "name": "",
          "type": "bool"
        }
      ],
      "stateMutability": "view",
      "type": "function",
      "constant": true
    },
    {
      "inputs": [
        {
          "internalType": "uint256",
          "name": "",
          "type": "uint256"
        }
      ],
      "name": "regulators",
      "outputs": [
        {
          "internalType": "address",
          "name": "",
          "type": "address"
        }
      ],
      "stateMutability": "view",
      "type": "function",
      "constant": true
    },
    {
      "stateMutability": "payable",
      "type": "receive",
      "payable": true
    },
    {
      "inputs": [
        {
          "internalType": "address",
          "name": "_newRegulator",
          "type": "address"
        }
      ],
      "name": "addRegulator",
      "outputs": [],
      "stateMutability": "nonpayable",
      "type": "function"
    },
    {
      "inputs": [
        {
          "internalType": "address",
          "name": "_regulator",
          "type": "address"
        }
      ],
      "name": "removeRegulator",
      "outputs": [],
      "stateMutability": "nonpayable",
      "type": "function"
    },
    {
      "inputs": [
        {
          "internalType": "address",
          "name": "_bank",
          "type": "address"
        }
      ],
      "name": "registerBank",
      "outputs": [],
      "stateMutability": "nonpayable",
      "type": "function"
    },
    {
      "inputs": [
        {
          "internalType": "address",
          "name": "_bank",
          "type": "address"
        },
        {
          "internalType": "address",
          "name": "_token",
          "type": "address"
        },
        {
          "internalType": "uint256",
          "name": "_amount",
          "type": "uint256"
        }
      ],
      "name": "deposit",
      "outputs": [],
      "stateMutability": "nonpayable",
      "type": "function"
    },
    {
      "inputs": [
        {
          "internalType": "address",
          "name": "_bank",
          "type": "address"
        }
      ],
      "name": "failBank",
      "outputs": [],
      "stateMutability": "nonpayable",
      "type": "function"
    },
    {
      "inputs": [
        {
          "internalType": "address",
          "name": "_bank",
          "type": "address"
        }
      ],
      "name": "unfailBank",
      "outputs": [],
      "stateMutability": "nonpayable",
      "type": "function"
    },
    {
      "inputs": [
        {
          "internalType": "address",
          "name": "_bank",
          "type": "address"
        },
        {
          "internalType": "address",
          "name": "_token",
          "type": "address"
        }
      ],
      "name": "claimInsurance",
      "outputs": [],
      "stateMutability": "nonpayable",
      "type": "function"
    },
    {
      "inputs": [],
      "name": "getInsurancePoolBalance",
      "outputs": [
        {
          "internalType": "uint256",
          "name": "",
          "type": "uint256"
        }
      ],
      "stateMutability": "view",
      "type": "function",
      "constant": true
    }
  ],
  "bytecode": "0x608060405234801561000f575f80fd5b506001805f3373ffffffffffffffffffffffffffffffffffffffff1673ffffffffffffffffffffffffffffffffffffffff1681526020019081526020015f205f6101000a81548160ff0219169083151502179055505f33908060018154018082558091505060019003905f5260205f20015f9091909190916101000a81548173ffffffffffffffffffffffffffffffffffffffff021916908373ffffffffffffffffffffffffffffffffffffffff160217905550611fb4806100d05f395ff3fe6080604052600436106100aa575f3560e01c80635e01426f116100635780635e01426f146101cf57806380c3b8c2146101f75780638340f54914610234578063ac63f3c71461025c578063c367229914610284578063ee2578ab146102ac576100b1565b806316e572c0146100b557806330907baa146100df578063379f5fed1461010757806353986e751461012f57806354fc91691461016b57806356426a52146101a7576100b1565b366100b157005b5f80fd5b3480156100c0575f80fd5b506100c96102ea565b6040516100d69190611731565b60405180910390f35b3480156100ea575f80fd5b50610105600480360381019061010091906117a8565b6102f1565b005b348015610112575f80fd5b5061012d600480360381019061012891906117e6565b610631565b005b34801561013a575f80fd5b506101556004803603810190610150919061183b565b610957565b6040516101629190611875565b60405180910390f35b348015610176575f80fd5b50610191600480360381019061018c91906117e6565b610991565b60405161019e91906118a8565b60405180910390f35b3480156101b2575f80fd5b506101cd60048036038101906101c891906117e6565b6109ae565b005b3480156101da575f80fd5b506101f560048036038101906101f091906117e6565b610beb565b005b348015610202575f80fd5b5061021d600480360381019061021891906117e6565b610d9d565b60405161022b9291906118c1565b60405180910390f35b34801561023f575f80fd5b5061025a600480360381019061025591906118e8565b610dd5565b005b348015610267575f80fd5b50610282600480360381019061027d91906117e6565b61131e565b005b34801561028f575f80fd5b506102aa60048036038101906102a591906117e6565b611598565b005b3480156102b7575f80fd5b506102d260048036038101906102cd9190611938565b6116be565b6040516102e193929190611988565b60405180910390f35b5f47905090565b60025f8373ffffffffffffffffffffffffffffffffffffffff1673ffffffffffffffffffffffffffffffffffffffff1681526020019081526020015f205f0160019054906101000a900460ff1661037d576040517f08c379a000000000000000000000000000000000000000000000000000000000815260040161037490611a17565b60405180910390fd5b5f60035f3373ffffffffffffffffffffffffffffffffffffffff1673ffffffffffffffffffffffffffffffffffffffff1681526020019081526020015f205f8473ffffffffffffffffffffffffffffffffffffffff1673ffffffffffffffffffffffffffffffffffffffff1681526020019081526020015f205f8373ffffffffffffffffffffffffffffffffffffffff1673ffffffffffffffffffffffffffffffffffffffff1681526020019081526020015f206001015490505f8111610479576040517f08c379a000000000000000000000000000000000000000000000000000000000815260040161047090611a7f565b60405180910390fd5b8173ffffffffffffffffffffffffffffffffffffffff1663a9059cbb33836040518363ffffffff1660e01b81526004016104b4929190611a9d565b6020604051808303815f875af11580156104d0573d5f803e3d5ffd5b505050506040513d601f19601f820116820180604052508101906104f49190611aee565b508173ffffffffffffffffffffffffffffffffffffffff168373ffffffffffffffffffffffffffffffffffffffff163373ffffffffffffffffffffffffffffffffffffffff167f2b021e24d54c4255ecc688f1a4dc52305754ece63762dfbff762688554ad5081846040516105699190611731565b60405180910390a45f60035f3373ffffffffffffffffffffffffffffffffffffffff1673ffffffffffffffffffffffffffffffffffffffff1681526020019081526020015f205f8573ffffffffffffffffffffffffffffffffffffffff1673ffffffffffffffffffffffffffffffffffffffff1681526020019081526020015f205f8473ffffffffffffffffffffffffffffffffffffffff1673ffffffffffffffffffffffffffffffffffffffff1681526020019081526020015f2060010181905550505050565b60015f3373ffffffffffffffffffffffffffffffffffffffff1673ffffffffffffffffffffffffffffffffffffffff1681526020019081526020015f205f9054906101000a900460ff166106ba576040517f08c379a00000000000000000000000000000000000000000000000000000000081526004016106b190611b89565b60405180910390fd5b60015f8273ffffffffffffffffffffffffffffffffffffffff1673ffffffffffffffffffffffffffffffffffffffff1681526020019081526020015f205f9054906101000a900460ff16610743576040517f08c379a000000000000000000000000000000000000000000000000000000000815260040161073a90611bf1565b60405180910390fd5b5f60015f8373ffffffffffffffffffffffffffffffffffffffff1673ffffffffffffffffffffffffffffffffffffffff1681526020019081526020015f205f6101000a81548160ff0219169083151502179055505f5b5f80549050811015610910578173ffffffffffffffffffffffffffffffffffffffff165f82815481106107cf576107ce611c0f565b5b905f5260205f20015f9054906101000a900473ffffffffffffffffffffffffffffffffffffffff1673ffffffffffffffffffffffffffffffffffffffff16036108fd575f60015f805490506108249190611c69565b8154811061083557610834611c0f565b5b905f5260205f20015f9054906101000a900473ffffffffffffffffffffffffffffffffffffffff165f82815481106108705761086f611c0f565b5b905f5260205f20015f6101000a81548173ffffffffffffffffffffffffffffffffffffffff021916908373ffffffffffffffffffffffffffffffffffffffff1602179055505f8054806108c6576108c5611c9c565b5b600190038181905f5260205f20015f6101000a81549073ffffffffffffffffffffffffffffffffffffffff02191690559055610910565b808061090890611cc9565b915050610799565b508073ffffffffffffffffffffffffffffffffffffffff167fc8ecc453f78c13ccc7596603b61935f29b99dc15bb91b91647e1ccf2469ad00a60405160405180910390a250565b5f8181548110610965575f80fd5b905f5260205f20015f915054906101000a900473ffffffffffffffffffffffffffffffffffffffff1681565b6001602052805f5260405f205f915054906101000a900460ff1681565b60015f3373ffffffffffffffffffffffffffffffffffffffff1673ffffffffffffffffffffffffffffffffffffffff1681526020019081526020015f205f9054906101000a900460ff16610a37576040517f08c379a0000000000000000000000000000000000000000000000000000000008152600401610a2e90611b89565b60405180910390fd5b60025f8273ffffffffffffffffffffffffffffffffffffffff1673ffffffffffffffffffffffffffffffffffffffff1681526020019081526020015f205f015f9054906101000a900460ff16610ac2576040517f08c379a0000000000000000000000000000000000000000000000000000000008152600401610ab990611d5a565b60405180910390fd5b60025f8273ffffffffffffffffffffffffffffffffffffffff1673ffffffffffffffffffffffffffffffffffffffff1681526020019081526020015f205f0160019054906101000a900460ff16610b4e576040517f08c379a0000000000000000000000000000000000000000000000000000000008152600401610b4590611a17565b60405180910390fd5b5f60025f8373ffffffffffffffffffffffffffffffffffffffff1673ffffffffffffffffffffffffffffffffffffffff1681526020019081526020015f205f0160016101000a81548160ff0219169083151502179055508073ffffffffffffffffffffffffffffffffffffffff167f4bba0c715ef301e8ac343cb5ef3e7211abc33c90af4e15ae13e7a3aa21164b8a60405160405180910390a250565b60015f3373ffffffffffffffffffffffffffffffffffffffff1673ffffffffffffffffffffffffffffffffffffffff1681526020019081526020015f205f9054906101000a900460ff16610c74576040517f08c379a0000000000000000000000000000000000000000000000000000000008152600401610c6b90611b89565b60405180910390fd5b60025f8273ffffffffffffffffffffffffffffffffffffffff1673ffffffffffffffffffffffffffffffffffffffff1681526020019081526020015f205f015f9054906101000a900460ff16610cff576040517f08c379a0000000000000000000000000000000000000000000000000000000008152600401610cf690611d5a565b60405180910390fd5b600160025f8373ffffffffffffffffffffffffffffffffffffffff1673ffffffffffffffffffffffffffffffffffffffff1681526020019081526020015f205f0160016101000a81548160ff0219169083151502179055508073ffffffffffffffffffffffffffffffffffffffff167f7f68dd0ffc239a74f0906890f089856577db0e414437571ee5da78441f7222fe60405160405180910390a250565b6002602052805f5260405f205f91509050805f015f9054906101000a900460ff1690805f0160019054906101000a900460ff16905082565b60025f8473ffffffffffffffffffffffffffffffffffffffff1673ffffffffffffffffffffffffffffffffffffffff1681526020019081526020015f205f015f9054906101000a900460ff16610e60576040517f08c379a0000000000000000000000000000000000000000000000000000000008152600401610e5790611d5a565b60405180910390fd5b60025f8473ffffffffffffffffffffffffffffffffffffffff1673ffffffffffffffffffffffffffffffffffffffff1681526020019081526020015f205f0160019054906101000a900460ff1615610eed576040517f08c379a0000000000000000000000000000000000000000000000000000000008152600401610ee490611dc2565b60405180910390fd5b5f8273ffffffffffffffffffffffffffffffffffffffff1663dd62ed3e33306040518363ffffffff1660e01b8152600401610f29929190611de0565b602060405180830381865afa158015610f44573d5f803e3d5ffd5b505050506040513d601f19601f82011682018060405250810190610f689190611e1b565b90505f8282610f779190611e46565b90508373ffffffffffffffffffffffffffffffffffffffff1663095ea7b330836040518363ffffffff1660e01b8152600401610fb4929190611a9d565b6020604051808303815f875af1158015610fd0573d5f803e3d5ffd5b505050506040513d601f19601f82011682018060405250810190610ff49190611aee565b508373ffffffffffffffffffffffffffffffffffffffff166323b872dd3330866040518463ffffffff1660e01b815260040161103293929190611e79565b6020604051808303815f875af115801561104e573d5f803e3d5ffd5b505050506040513d601f19601f820116820180604052508101906110729190611aee565b508260035f3373ffffffffffffffffffffffffffffffffffffffff1673ffffffffffffffffffffffffffffffffffffffff1681526020019081526020015f205f8773ffffffffffffffffffffffffffffffffffffffff1673ffffffffffffffffffffffffffffffffffffffff1681526020019081526020015f205f8673ffffffffffffffffffffffffffffffffffffffff1673ffffffffffffffffffffffffffffffffffffffff1681526020019081526020015f205f015f8282546111379190611e46565b925050819055508260035f3373ffffffffffffffffffffffffffffffffffffffff1673ffffffffffffffffffffffffffffffffffffffff1681526020019081526020015f205f8773ffffffffffffffffffffffffffffffffffffffff1673ffffffffffffffffffffffffffffffffffffffff1681526020019081526020015f205f8673ffffffffffffffffffffffffffffffffffffffff1673ffffffffffffffffffffffffffffffffffffffff1681526020019081526020015f206001015f8282546112039190611e46565b925050819055508260025f8773ffffffffffffffffffffffffffffffffffffffff1673ffffffffffffffffffffffffffffffffffffffff1681526020019081526020015f206001015f8673ffffffffffffffffffffffffffffffffffffffff1673ffffffffffffffffffffffffffffffffffffffff1681526020019081526020015f205f8282546112949190611e46565b925050819055508373ffffffffffffffffffffffffffffffffffffffff168573ffffffffffffffffffffffffffffffffffffffff163373ffffffffffffffffffffffffffffffffffffffff167fbe2d7a78cc1b5e2bfa97c379430571e5c9a49f6ae43f84624848e25157fb30cf8660405161130f9190611731565b60405180910390a45050505050565b60015f3373ffffffffffffffffffffffffffffffffffffffff1673ffffffffffffffffffffffffffffffffffffffff1681526020019081526020015f205f9054906101000a900460ff166113a7576040517f08c379a000000000000000000000000000000000000000000000000000000000815260040161139e90611b89565b60405180910390fd5b5f73ffffffffffffffffffffffffffffffffffffffff168173ffffffffffffffffffffffffffffffffffffffff1603611415576040517f08c379a000000000000000000000000000000000000000000000000000000000815260040161140c90611ef8565b60405180910390fd5b60015f8273ffffffffffffffffffffffffffffffffffffffff1673ffffffffffffffffffffffffffffffffffffffff1681526020019081526020015f205f9054906101000a900460ff161561149f576040517f08c379a000000000000000000000000000000000000000000000000000000000815260040161149690611f60565b60405180910390fd5b6001805f8373ffffffffffffffffffffffffffffffffffffffff1673ffffffffffffffffffffffffffffffffffffffff1681526020019081526020015f205f6101000a81548160ff0219169083151502179055505f81908060018154018082558091505060019003905f5260205f20015f9091909190916101000a81548173ffffffffffffffffffffffffffffffffffffffff021916908373ffffffffffffffffffffffffffffffffffffffff1602179055508073ffffffffffffffffffffffffffffffffffffffff167f2860b5ba44f983f8f363ee6eeb3c24cbca3096803fbdd5129b9e253f01cac07660405160405180910390a250565b60015f3373ffffffffffffffffffffffffffffffffffffffff1673ffffffffffffffffffffffffffffffffffffffff1681526020019081526020015f205f9054906101000a900460ff16611621576040517f08c379a000000000000000000000000000000000000000000000000000000000815260040161161890611b89565b60405180910390fd5b600160025f8373ffffffffffffffffffffffffffffffffffffffff1673ffffffffffffffffffffffffffffffffffffffff1681526020019081526020015f205f015f6101000a81548160ff0219169083151502179055508073ffffffffffffffffffffffffffffffffffffffff167f4a6deab8cf14a40f9388fd118ec277f31a67b616473839fa23330a3ef9e1dc0560405160405180910390a250565b6003602052825f5260405f20602052815f5260405f20602052805f5260405f205f925092505050805f015490806001015490806002015f9054906101000a900473ffffffffffffffffffffffffffffffffffffffff16905083565b5f819050919050565b61172b81611719565b82525050565b5f6020820190506117445f830184611722565b92915050565b5f80fd5b5f73ffffffffffffffffffffffffffffffffffffffff82169050919050565b5f6117778261174e565b9050919050565b6117878161176d565b8114611791575f80fd5b50565b5f813590506117a28161177e565b92915050565b5f80604083850312156117be576117bd61174a565b5b5f6117cb85828601611794565b92505060206117dc85828601611794565b9150509250929050565b5f602082840312156117fb576117fa61174a565b5b5f61180884828501611794565b91505092915050565b61181a81611719565b8114611824575f80fd5b50565b5f8135905061183581611811565b92915050565b5f602082840312156118505761184f61174a565b5b5f61185d84828501611827565b91505092915050565b61186f8161176d565b82525050565b5f6020820190506118885f830184611866565b92915050565b5f8115159050919050565b6118a28161188e565b82525050565b5f6020820190506118bb5f830184611899565b92915050565b5f6040820190506118d45f830185611899565b6118e16020830184611899565b9392505050565b5f805f606084860312156118ff576118fe61174a565b5b5f61190c86828701611794565b935050602061191d86828701611794565b925050604061192e86828701611827565b9150509250925092565b5f805f6060848603121561194f5761194e61174a565b5b5f61195c86828701611794565b935050602061196d86828701611794565b925050604061197e86828701611794565b9150509250925092565b5f60608201905061199b5f830186611722565b6119a86020830185611722565b6119b56040830184611866565b949350505050565b5f82825260208201905092915050565b7f42616e6b20686173206e6f74206661696c6564000000000000000000000000005f82015250565b5f611a016013836119bd565b9150611a0c826119cd565b602082019050919050565b5f6020820190508181035f830152611a2e816119f5565b9050919050565b7f4e6f20696e737572656420616d6f756e7420746f20636c61696d0000000000005f82015250565b5f611a69601a836119bd565b9150611a7482611a35565b602082019050919050565b5f6020820190508181035f830152611a9681611a5d565b9050919050565b5f604082019050611ab05f830185611866565b611abd6020830184611722565b9392505050565b611acd8161188e565b8114611ad7575f80fd5b50565b5f81519050611ae881611ac4565b92915050565b5f60208284031215611b0357611b0261174a565b5b5f611b1084828501611ada565b91505092915050565b7f4f6e6c7920726567756c61746f722063616e20706572666f726d2074686973205f8201527f616374696f6e0000000000000000000000000000000000000000000000000000602082015250565b5f611b736026836119bd565b9150611b7e82611b19565b604082019050919050565b5f6020820190508181035f830152611ba081611b67565b9050919050565b7f4e6f74206120726567756c61746f7200000000000000000000000000000000005f82015250565b5f611bdb600f836119bd565b9150611be682611ba7565b602082019050919050565b5f6020820190508181035f830152611c0881611bcf565b9050919050565b7f4e487b71000000000000000000000000000000000000000000000000000000005f52603260045260245ffd5b7f4e487b71000000000000000000000000000000000000000000000000000000005f52601160045260245ffd5b5f611c7382611719565b9150611c7e83611719565b9250828203905081811115611c9657611c95611c3c565b5b92915050565b7f4e487b71000000000000000000000000000000000000000000000000000000005f52603160045260245ffd5b5f611cd382611719565b91507fffffffffffffffffffffffffffffffffffffffffffffffffffffffffffffffff8203611d0557611d04611c3c565b5b600182019050919050565b7f42616e6b206973206e6f742072656769737465726564000000000000000000005f82015250565b5f611d446016836119bd565b9150611d4f82611d10565b602082019050919050565b5f6020820190508181035f830152611d7181611d38565b9050919050565b7f42616e6b20686173206661696c656400000000000000000000000000000000005f82015250565b5f611dac600f836119bd565b9150611db782611d78565b602082019050919050565b5f6020820190508181035f830152611dd981611da0565b9050919050565b5f604082019050611df35f830185611866565b611e006020830184611866565b9392505050565b5f81519050611e1581611811565b92915050565b5f60208284031215611e3057611e2f61174a565b5b5f611e3d84828501611e07565b91505092915050565b5f611e5082611719565b9150611e5b83611719565b9250828201905080821115611e7357611e72611c3c565b5b92915050565b5f606082019050611e8c5f830186611866565b611e996020830185611866565b611ea66040830184611722565b949350505050565b7f496e76616c6964206164647265737300000000000000000000000000000000005f82015250565b5f611ee2600f836119bd565b9150611eed82611eae565b602082019050919050565b5f6020820190508181035f830152611f0f81611ed6565b9050919050565b7f4164647265737320697320616c7265616479206120726567756c61746f7200005f82015250565b5f611f4a601e836119bd565b9150611f5582611f16565b602082019050919050565b5f6020820190508181035f830152611f7781611f3e565b905091905056fea2646970667358221220d19168a61bad38455e8ba79caa3a06da80a83cd2a9ae07a46aa96654e937cf7e64736f6c63430008140033",
  "immutableReferences": {},
  "source": "// File: @openzeppelin/contracts/token/ERC20/IERC20.sol\n\n\n// OpenZeppelin Contracts (last updated v5.0.0) (token/ERC20/IERC20.sol)\n\npragma solidity ^0.8.20;\n\n/**\n * @dev Interface of the ERC20 standard as defined in the EIP.\n */\ninterface IERC20 {\n    /**\n     * @dev Emitted when `value` tokens are moved from one account (`from`) to\n     * another (`to`).\n     *\n     * Note that `value` may be zero.\n     */\n    event Transfer(address indexed from, address indexed to, uint256 value);\n\n    /**\n     * @dev Emitted when the allowance of a `spender` for an `owner` is set by\n     * a call to {approve}. `value` is the new allowance.\n     */\n    event Approval(address indexed owner, address indexed spender, uint256 value);\n\n    /**\n     * @dev Returns the value of tokens in existence.\n     */\n    function totalSupply() external view returns (uint256);\n\n    /**\n     * @dev Returns the value of tokens owned by `account`.\n     */\n    function balanceOf(address account) external view returns (uint256);\n\n    /**\n     * @dev Moves a `value` amount of tokens from the caller's account to `to`.\n     *\n     * Returns a boolean value indicating whether the operation succeeded.\n     *\n     * Emits a {Transfer} event.\n     */\n    function transfer(address to, uint256 value) external returns (bool);\n\n    /**\n     * @dev Returns the remaining number of tokens that `spender` will be\n     * allowed to spend on behalf of `owner` through {transferFrom}. This is\n     * zero by default.\n     *\n     * This value changes when {approve} or {transferFrom} are called.\n     */\n    function allowance(address owner, address spender) external view returns (uint256);\n\n    /**\n     * @dev Sets a `value` amount of tokens as the allowance of `spender` over the\n     * caller's tokens.\n     *\n     * Returns a boolean value indicating whether the operation succeeded.\n     *\n     * IMPORTANT: Beware that changing an allowance with this method brings the risk\n     * that someone may use both the old and the new allowance by unfortunate\n     * transaction ordering. One possible solution to mitigate this race\n     * condition is to first reduce the spender's allowance to 0 and set the\n     * desired value afterwards:\n     * https://github.com/ethereum/EIPs/issues/20#issuecomment-263524729\n     *\n     * Emits an {Approval} event.\n     */\n    function approve(address spender, uint256 value) external returns (bool);\n\n    /**\n     * @dev Moves a `value` amount of tokens from `from` to `to` using the\n     * allowance mechanism. `value` is then deducted from the caller's\n     * allowance.\n     *\n     * Returns a boolean value indicating whether the operation succeeded.\n     *\n     * Emits a {Transfer} event.\n     */\n    function transferFrom(address from, address to, uint256 value) external returns (bool);\n}\n\n// File: OnChainFDIC.sol\n\n\npragma solidity ^0.8.20;\n\n\ncontract ERC20FDIC {\n    struct Bank {\n        bool isRegistered;\n        bool isFailed;\n        mapping(address => uint256) totalDeposits;\n    }\n\n    struct Depositor {\n        uint256 amount;\n        uint256 insuredAmount;\n        address token;\n    }\n\n    address[] public regulators; // an array to store multiple regulators\n    mapping(address => bool) public isRegulator; // mapping to check if an address is a regulator\n    mapping(address => Bank) public banks;\n    mapping(address => mapping(address => mapping(address => Depositor))) public deposits; // depositor => bank => Depositor\n\n    event BankRegistered(address indexed bank);\n    event DepositMade(address indexed depositor, address indexed bank, address indexed token, uint256 amount);\n    event BankFailed(address indexed bank);\n    event BankUnfailed(address indexed bank);\n    event CompensationPaid(address indexed depositor, address indexed bank, address indexed token, uint256 amount);\n    event RegulatorAdded(address indexed regulator);\n    event RegulatorRemoved(address indexed regulator);\n\n    modifier onlyRegulator() {\n        require(isRegulator[msg.sender], \"Only regulator can perform this action\");\n        _;\n    }\n\n    constructor() {\n        isRegulator[msg.sender] = true;\n        regulators.push(msg.sender);\n    }\n\n    // Function to add a new regulator\n    function addRegulator(address _newRegulator) external onlyRegulator {\n        require(_newRegulator != address(0), \"Invalid address\");\n        require(!isRegulator[_newRegulator], \"Address is already a regulator\");\n        \n        isRegulator[_newRegulator] = true;\n        regulators.push(_newRegulator);\n        \n        emit RegulatorAdded(_newRegulator);\n    }\n\n    // Function to remove a regulator\n    function removeRegulator(address _regulator) external onlyRegulator {\n        require(isRegulator[_regulator], \"Not a regulator\");\n        \n        isRegulator[_regulator] = false;\n        \n        // Optionally, you can remove from the regulators array\n        for (uint256 i = 0; i < regulators.length; i++) {\n            if (regulators[i] == _regulator) {\n                regulators[i] = regulators[regulators.length - 1]; // Move the last element to the removed spot\n                regulators.pop(); // Remove the last element\n                break; // Exit the loop once removed\n            }\n        }\n        \n        emit RegulatorRemoved(_regulator);\n    }\n\n\n\n    // Function for regulator to register banks\n    function registerBank(address _bank) external onlyRegulator {\n        banks[_bank].isRegistered = true;\n        emit BankRegistered(_bank);\n    }\n\n    // Depositors deposit funds into banks\n    function deposit(address _bank, address _token, uint256 _amount) external {\n        require(banks[_bank].isRegistered, \"Bank is not registered\");\n        require(!banks[_bank].isFailed, \"Bank has failed\");\n\n        // Transfer the ERC20 tokens from the sender to this contract\n        uint256 currentAllowance = IERC20(_token).allowance(msg.sender, address(this));\n        uint256 newAllowance = currentAllowance + _amount;\n        IERC20(_token).approve(address(this), newAllowance);\n\n        IERC20(_token).transferFrom(msg.sender, address(this), _amount);\n\n        deposits[msg.sender][_bank][_token].amount += _amount;\n        deposits[msg.sender][_bank][_token].insuredAmount += _amount;\n        banks[_bank].totalDeposits[_token] += _amount;\n\n        emit DepositMade(msg.sender, _bank, _token, _amount);\n    }\n\n    // Regulator marks bank as failed\n    function failBank(address _bank) external onlyRegulator {\n        require(banks[_bank].isRegistered, \"Bank is not registered\");\n        banks[_bank].isFailed = true;\n        emit BankFailed(_bank);\n    }\n\n        // Regulator unfails bank\n    function unfailBank(address _bank) external onlyRegulator {\n        require(banks[_bank].isRegistered, \"Bank is not registered\");\n        require(banks[_bank].isFailed, \"Bank has not failed\");\n        banks[_bank].isFailed = false;\n        emit BankUnfailed(_bank);\n    }\n\n    // Depositors claim insurance after bank failure\n    function claimInsurance(address _bank, address _token) external {\n        require(banks[_bank].isFailed, \"Bank has not failed\");\n        uint256 compensation = deposits[msg.sender][_bank][_token].insuredAmount;\n        require(compensation > 0, \"No insured amount to claim\");\n\n        // Pay compensation in ERC-20 tokens\n        IERC20(_token).transfer( msg.sender, compensation);\n        emit CompensationPaid(msg.sender, _bank, _token, compensation);\n\n        // Reset depositor's insured amount to prevent re-entrancy\n        deposits[msg.sender][_bank][_token].insuredAmount = 0;\n\n    }\n\n    // Function to fund the insurance pool (could be from bank premiums)\n    receive() external payable {}\n\n    // Function to check the contract balance (insurance pool)\n    function getInsurancePoolBalance() external view returns (uint256) {\n        return address(this).balance;\n    }\n}",
  "sourcePath": "/Users/aditpatel/Desktop/temp/fdic-dapp/contracts/ERC20DFDIC.sol",
  "compiler": {
    "name": "solc",
    "version": "0.8.20+commit.a1b79de6.Emscripten.clang"
  },
  "schemaVersion": "3.4.16",
  "updatedAt": "2024-09-24T20:00:32.221Z",
  "networkType": "ethereum",
  "devdoc": {
    "kind": "dev",
    "methods": {},
    "version": 1
  },
  "userdoc": {
    "kind": "user",
    "methods": {},
    "version": 1
  }
}