{
  "contractName": "ERC20FDIC",
  "abi": [
    {
      "inputs": [],
      "stateMutability": "nonpayable",
      "type": "constructor"
    },
    {
      "anonymous": false,
      "inputs": [
        {
          "indexed": true,
          "internalType": "address",
          "name": "bank",
          "type": "address"
        }
      ],
      "name": "BankFailed",
      "type": "event"
    },
    {
      "anonymous": false,
      "inputs": [
        {
          "indexed": true,
          "internalType": "address",
          "name": "bank",
          "type": "address"
        }
      ],
      "name": "BankRegistered",
      "type": "event"
    },
    {
      "anonymous": false,
      "inputs": [
        {
          "indexed": true,
          "internalType": "address",
          "name": "bank",
          "type": "address"
        }
      ],
      "name": "BankUnfailed",
      "type": "event"
    },
    {
      "anonymous": false,
      "inputs": [
        {
          "indexed": true,
          "internalType": "address",
          "name": "depositor",
          "type": "address"
        },
        {
          "indexed": true,
          "internalType": "address",
          "name": "bank",
          "type": "address"
        },
        {
          "indexed": true,
          "internalType": "address",
          "name": "token",
          "type": "address"
        },
        {
          "indexed": false,
          "internalType": "uint256",
          "name": "amount",
          "type": "uint256"
        }
      ],
      "name": "CompensationPaid",
      "type": "event"
    },
    {
      "anonymous": false,
      "inputs": [
        {
          "indexed": true,
          "internalType": "address",
          "name": "depositor",
          "type": "address"
        },
        {
          "indexed": true,
          "internalType": "address",
          "name": "bank",
          "type": "address"
        },
        {
          "indexed": true,
          "internalType": "address",
          "name": "token",
          "type": "address"
        },
        {
          "indexed": false,
          "internalType": "uint256",
          "name": "amount",
          "type": "uint256"
        }
      ],
      "name": "DepositMade",
      "type": "event"
    },
    {
      "anonymous": false,
      "inputs": [
        {
          "indexed": true,
          "internalType": "address",
          "name": "regulator",
          "type": "address"
        }
      ],
      "name": "RegulatorAdded",
      "type": "event"
    },
    {
      "anonymous": false,
      "inputs": [
        {
          "indexed": true,
          "internalType": "address",
          "name": "regulator",
          "type": "address"
        }
      ],
      "name": "RegulatorRemoved",
      "type": "event"
    },
    {
      "inputs": [
        {
          "internalType": "uint256",
          "name": "",
          "type": "uint256"
        }
      ],
      "name": "bankArray",
      "outputs": [
        {
          "internalType": "address",
          "name": "",
          "type": "address"
        }
      ],
      "stateMutability": "view",
      "type": "function",
      "constant": true
    },
    {
      "inputs": [
        {
          "internalType": "address",
          "name": "",
          "type": "address"
        }
      ],
      "name": "banks",
      "outputs": [
        {
          "internalType": "bool",
          "name": "isRegistered",
          "type": "bool"
        },
        {
          "internalType": "bool",
          "name": "isFailed",
          "type": "bool"
        }
      ],
      "stateMutability": "view",
      "type": "function",
      "constant": true
    },
    {
      "inputs": [
        {
          "internalType": "uint256",
          "name": "",
          "type": "uint256"
        }
      ],
      "name": "depositArray",
      "outputs": [
        {
          "internalType": "uint256",
          "name": "amount",
          "type": "uint256"
        },
        {
          "internalType": "uint256",
          "name": "insuredAmount",
          "type": "uint256"
        },
        {
          "internalType": "address",
          "name": "token",
          "type": "address"
        }
      ],
      "stateMutability": "view",
      "type": "function",
      "constant": true
    },
    {
      "inputs": [
        {
          "internalType": "address",
          "name": "",
          "type": "address"
        },
        {
          "internalType": "address",
          "name": "",
          "type": "address"
        },
        {
          "internalType": "address",
          "name": "",
          "type": "address"
        }
      ],
      "name": "deposits",
      "outputs": [
        {
          "internalType": "uint256",
          "name": "amount",
          "type": "uint256"
        },
        {
          "internalType": "uint256",
          "name": "insuredAmount",
          "type": "uint256"
        },
        {
          "internalType": "address",
          "name": "token",
          "type": "address"
        }
      ],
      "stateMutability": "view",
      "type": "function",
      "constant": true
    },
    {
      "inputs": [],
      "name": "insurancePoolBalance",
      "outputs": [
        {
          "internalType": "uint256",
          "name": "",
          "type": "uint256"
        }
      ],
      "stateMutability": "view",
      "type": "function",
      "constant": true
    },
    {
      "inputs": [
        {
          "internalType": "address",
          "name": "",
          "type": "address"
        }
      ],
      "name": "isRegulator",
      "outputs": [
        {
          "internalType": "bool",
          "name": "",
          "type": "bool"
        }
      ],
      "stateMutability": "view",
      "type": "function",
      "constant": true
    },
    {
      "inputs": [
        {
          "internalType": "uint256",
          "name": "",
          "type": "uint256"
        }
      ],
      "name": "regulators",
      "outputs": [
        {
          "internalType": "address",
          "name": "",
          "type": "address"
        }
      ],
      "stateMutability": "view",
      "type": "function",
      "constant": true
    },
    {
      "stateMutability": "payable",
      "type": "receive",
      "payable": true
    },
    {
      "inputs": [
        {
          "internalType": "address",
          "name": "_newRegulator",
          "type": "address"
        }
      ],
      "name": "addRegulator",
      "outputs": [],
      "stateMutability": "nonpayable",
      "type": "function"
    },
    {
      "inputs": [
        {
          "internalType": "address",
          "name": "_regulator",
          "type": "address"
        }
      ],
      "name": "removeRegulator",
      "outputs": [],
      "stateMutability": "nonpayable",
      "type": "function"
    },
    {
      "inputs": [],
      "name": "getRegulators",
      "outputs": [
        {
          "internalType": "address[]",
          "name": "",
          "type": "address[]"
        }
      ],
      "stateMutability": "view",
      "type": "function",
      "constant": true
    },
    {
      "inputs": [
        {
          "internalType": "address",
          "name": "_bank",
          "type": "address"
        }
      ],
      "name": "registerBank",
      "outputs": [],
      "stateMutability": "nonpayable",
      "type": "function"
    },
    {
      "inputs": [],
      "name": "getBanks",
      "outputs": [
        {
          "internalType": "address[]",
          "name": "",
          "type": "address[]"
        }
      ],
      "stateMutability": "view",
      "type": "function",
      "constant": true
    },
    {
      "inputs": [],
      "name": "getFailedBanks",
      "outputs": [
        {
          "internalType": "address[]",
          "name": "",
          "type": "address[]"
        }
      ],
      "stateMutability": "view",
      "type": "function",
      "constant": true
    },
    {
      "inputs": [
        {
          "internalType": "address",
          "name": "_bank",
          "type": "address"
        },
        {
          "internalType": "address",
          "name": "_token",
          "type": "address"
        },
        {
          "internalType": "uint256",
          "name": "_amount",
          "type": "uint256"
        }
      ],
      "name": "deposit",
      "outputs": [],
      "stateMutability": "nonpayable",
      "type": "function"
    },
    {
      "inputs": [
        {
          "internalType": "address",
          "name": "_bank",
          "type": "address"
        }
      ],
      "name": "failBank",
      "outputs": [],
      "stateMutability": "nonpayable",
      "type": "function"
    },
    {
      "inputs": [
        {
          "internalType": "address",
          "name": "_bank",
          "type": "address"
        }
      ],
      "name": "unfailBank",
      "outputs": [],
      "stateMutability": "nonpayable",
      "type": "function"
    },
    {
      "inputs": [
        {
          "internalType": "address",
          "name": "_bank",
          "type": "address"
        },
        {
          "internalType": "address",
          "name": "_token",
          "type": "address"
        }
      ],
      "name": "claimInsurance",
      "outputs": [],
      "stateMutability": "nonpayable",
      "type": "function"
    },
    {
      "inputs": [],
      "name": "getInsurancePoolBalance",
      "outputs": [
        {
          "internalType": "uint256",
          "name": "",
          "type": "uint256"
        }
      ],
      "stateMutability": "view",
      "type": "function",
      "constant": true
    }
  ],
  "bytecode": "0x608060405234801561000f575f80fd5b50600160045f3373ffffffffffffffffffffffffffffffffffffffff1673ffffffffffffffffffffffffffffffffffffffff1681526020019081526020015f205f6101000a81548160ff021916908315150217905550600133908060018154018082558091505060019003905f5260205f20015f9091909190916101000a81548173ffffffffffffffffffffffffffffffffffffffff021916908373ffffffffffffffffffffffffffffffffffffffff1602179055505f80819055506126f3806100d85f395ff3fe60806040526004361061010c575f3560e01c80635e01426f11610094578063ac63f3c711610063578063ac63f3c71461038c578063c3672299146103b4578063c9559786146103dc578063d6d6d93414610406578063ee2578ab1461043057610113565b80635e01426f146102d557806372550ebf146102fd57806380c3b8c2146103275780638340f5491461036457610113565b8063379f5fed116100db578063379f5fed146101e357806343347e0e1461020b57806353986e751461023557806354fc91691461027157806356426a52146102ad57610113565b806303879bf71461011757806316e572c014610153578063277609181461017d57806330907baa146101bb57610113565b3661011357005b5f80fd5b348015610122575f80fd5b5061013d60048036038101906101389190611d8b565b61046e565b60405161014a9190611df5565b60405180910390f35b34801561015e575f80fd5b506101676104a9565b6040516101749190611e1d565b60405180910390f35b348015610188575f80fd5b506101a3600480360381019061019e9190611d8b565b6104b1565b6040516101b293929190611e36565b60405180910390f35b3480156101c6575f80fd5b506101e160048036038101906101dc9190611e95565b610505565b005b3480156101ee575f80fd5b5061020960048036038101906102049190611ed3565b61085c565b005b348015610216575f80fd5b5061021f610b86565b60405161022c9190611fb5565b60405180910390f35b348015610240575f80fd5b5061025b60048036038101906102569190611d8b565b610c11565b6040516102689190611df5565b60405180910390f35b34801561027c575f80fd5b5061029760048036038101906102929190611ed3565b610c4c565b6040516102a49190611fef565b60405180910390f35b3480156102b8575f80fd5b506102d360048036038101906102ce9190611ed3565b610c69565b005b3480156102e0575f80fd5b506102fb60048036038101906102f69190611ed3565b610ea6565b005b348015610308575f80fd5b50610311611058565b60405161031e9190611fb5565b60405180910390f35b348015610332575f80fd5b5061034d60048036038101906103489190611ed3565b6112cf565b60405161035b929190612008565b60405180910390f35b34801561036f575f80fd5b5061038a6004803603810190610385919061202f565b611307565b005b348015610397575f80fd5b506103b260048036038101906103ad9190611ed3565b611867565b005b3480156103bf575f80fd5b506103da60048036038101906103d59190611ed3565b611ae3565b005b3480156103e7575f80fd5b506103f0611c69565b6040516103fd9190611e1d565b60405180910390f35b348015610411575f80fd5b5061041a611c6e565b6040516104279190611fb5565b60405180910390f35b34801561043b575f80fd5b506104566004803603810190610451919061207f565b611cf9565b60405161046593929190611e36565b60405180910390f35b6002818154811061047d575f80fd5b905f5260205f20015f915054906101000a900473ffffffffffffffffffffffffffffffffffffffff1681565b5f8054905090565b600381815481106104c0575f80fd5b905f5260205f2090600302015f91509050805f015490806001015490806002015f9054906101000a900473ffffffffffffffffffffffffffffffffffffffff16905083565b60055f8373ffffffffffffffffffffffffffffffffffffffff1673ffffffffffffffffffffffffffffffffffffffff1681526020019081526020015f205f0160019054906101000a900460ff16610591576040517f08c379a000000000000000000000000000000000000000000000000000000000815260040161058890612129565b60405180910390fd5b5f60065f3373ffffffffffffffffffffffffffffffffffffffff1673ffffffffffffffffffffffffffffffffffffffff1681526020019081526020015f205f8473ffffffffffffffffffffffffffffffffffffffff1673ffffffffffffffffffffffffffffffffffffffff1681526020019081526020015f205f8373ffffffffffffffffffffffffffffffffffffffff1673ffffffffffffffffffffffffffffffffffffffff1681526020019081526020015f206001015490505f811161068d576040517f08c379a000000000000000000000000000000000000000000000000000000000815260040161068490612191565b60405180910390fd5b8173ffffffffffffffffffffffffffffffffffffffff1663a9059cbb33836040518363ffffffff1660e01b81526004016106c89291906121af565b6020604051808303815f875af11580156106e4573d5f803e3d5ffd5b505050506040513d601f19601f820116820180604052508101906107089190612200565b50805f808282546107199190612258565b925050819055508173ffffffffffffffffffffffffffffffffffffffff168373ffffffffffffffffffffffffffffffffffffffff163373ffffffffffffffffffffffffffffffffffffffff167f2b021e24d54c4255ecc688f1a4dc52305754ece63762dfbff762688554ad5081846040516107949190611e1d565b60405180910390a45f60065f3373ffffffffffffffffffffffffffffffffffffffff1673ffffffffffffffffffffffffffffffffffffffff1681526020019081526020015f205f8573ffffffffffffffffffffffffffffffffffffffff1673ffffffffffffffffffffffffffffffffffffffff1681526020019081526020015f205f8473ffffffffffffffffffffffffffffffffffffffff1673ffffffffffffffffffffffffffffffffffffffff1681526020019081526020015f2060010181905550505050565b60045f3373ffffffffffffffffffffffffffffffffffffffff1673ffffffffffffffffffffffffffffffffffffffff1681526020019081526020015f205f9054906101000a900460ff166108e5576040517f08c379a00000000000000000000000000000000000000000000000000000000081526004016108dc906122fb565b60405180910390fd5b60045f8273ffffffffffffffffffffffffffffffffffffffff1673ffffffffffffffffffffffffffffffffffffffff1681526020019081526020015f205f9054906101000a900460ff1661096e576040517f08c379a000000000000000000000000000000000000000000000000000000000815260040161096590612363565b60405180910390fd5b5f60045f8373ffffffffffffffffffffffffffffffffffffffff1673ffffffffffffffffffffffffffffffffffffffff1681526020019081526020015f205f6101000a81548160ff0219169083151502179055505f5b600180549050811015610b3f578173ffffffffffffffffffffffffffffffffffffffff16600182815481106109fc576109fb612381565b5b905f5260205f20015f9054906101000a900473ffffffffffffffffffffffffffffffffffffffff1673ffffffffffffffffffffffffffffffffffffffff1603610b2c576001808080549050610a519190612258565b81548110610a6257610a61612381565b5b905f5260205f20015f9054906101000a900473ffffffffffffffffffffffffffffffffffffffff1660018281548110610a9e57610a9d612381565b5b905f5260205f20015f6101000a81548173ffffffffffffffffffffffffffffffffffffffff021916908373ffffffffffffffffffffffffffffffffffffffff1602179055506001805480610af557610af46123ae565b5b600190038181905f5260205f20015f6101000a81549073ffffffffffffffffffffffffffffffffffffffff02191690559055610b3f565b8080610b37906123db565b9150506109c4565b508073ffffffffffffffffffffffffffffffffffffffff167fc8ecc453f78c13ccc7596603b61935f29b99dc15bb91b91647e1ccf2469ad00a60405160405180910390a250565b60606002805480602002602001604051908101604052809291908181526020018280548015610c0757602002820191905f5260205f20905b815f9054906101000a900473ffffffffffffffffffffffffffffffffffffffff1673ffffffffffffffffffffffffffffffffffffffff1681526020019060010190808311610bbe575b5050505050905090565b60018181548110610c20575f80fd5b905f5260205f20015f915054906101000a900473ffffffffffffffffffffffffffffffffffffffff1681565b6004602052805f5260405f205f915054906101000a900460ff1681565b60045f3373ffffffffffffffffffffffffffffffffffffffff1673ffffffffffffffffffffffffffffffffffffffff1681526020019081526020015f205f9054906101000a900460ff16610cf2576040517f08c379a0000000000000000000000000000000000000000000000000000000008152600401610ce9906122fb565b60405180910390fd5b60055f8273ffffffffffffffffffffffffffffffffffffffff1673ffffffffffffffffffffffffffffffffffffffff1681526020019081526020015f205f015f9054906101000a900460ff16610d7d576040517f08c379a0000000000000000000000000000000000000000000000000000000008152600401610d749061246c565b60405180910390fd5b60055f8273ffffffffffffffffffffffffffffffffffffffff1673ffffffffffffffffffffffffffffffffffffffff1681526020019081526020015f205f0160019054906101000a900460ff16610e09576040517f08c379a0000000000000000000000000000000000000000000000000000000008152600401610e0090612129565b60405180910390fd5b5f60055f8373ffffffffffffffffffffffffffffffffffffffff1673ffffffffffffffffffffffffffffffffffffffff1681526020019081526020015f205f0160016101000a81548160ff0219169083151502179055508073ffffffffffffffffffffffffffffffffffffffff167f4bba0c715ef301e8ac343cb5ef3e7211abc33c90af4e15ae13e7a3aa21164b8a60405160405180910390a250565b60045f3373ffffffffffffffffffffffffffffffffffffffff1673ffffffffffffffffffffffffffffffffffffffff1681526020019081526020015f205f9054906101000a900460ff16610f2f576040517f08c379a0000000000000000000000000000000000000000000000000000000008152600401610f26906122fb565b60405180910390fd5b60055f8273ffffffffffffffffffffffffffffffffffffffff1673ffffffffffffffffffffffffffffffffffffffff1681526020019081526020015f205f015f9054906101000a900460ff16610fba576040517f08c379a0000000000000000000000000000000000000000000000000000000008152600401610fb19061246c565b60405180910390fd5b600160055f8373ffffffffffffffffffffffffffffffffffffffff1673ffffffffffffffffffffffffffffffffffffffff1681526020019081526020015f205f0160016101000a81548160ff0219169083151502179055508073ffffffffffffffffffffffffffffffffffffffff167f7f68dd0ffc239a74f0906890f089856577db0e414437571ee5da78441f7222fe60405160405180910390a250565b60605f60028054905067ffffffffffffffff81111561107a5761107961248a565b5b6040519080825280602002602001820160405280156110a85781602001602082028036833780820191505090505b5090505f805b6002805490508110156111f35760055f600283815481106110d2576110d1612381565b5b905f5260205f20015f9054906101000a900473ffffffffffffffffffffffffffffffffffffffff1673ffffffffffffffffffffffffffffffffffffffff1673ffffffffffffffffffffffffffffffffffffffff1681526020019081526020015f205f0160019054906101000a900460ff16156111e0576002818154811061115c5761115b612381565b5b905f5260205f20015f9054906101000a900473ffffffffffffffffffffffffffffffffffffffff1683838151811061119757611196612381565b5b602002602001019073ffffffffffffffffffffffffffffffffffffffff16908173ffffffffffffffffffffffffffffffffffffffff168152505081806111dc906123db565b9250505b80806111eb906123db565b9150506110ae565b505f8167ffffffffffffffff81111561120f5761120e61248a565b5b60405190808252806020026020018201604052801561123d5781602001602082028036833780820191505090505b5090505f5b828110156112c55783818151811061125d5761125c612381565b5b602002602001015182828151811061127857611277612381565b5b602002602001019073ffffffffffffffffffffffffffffffffffffffff16908173ffffffffffffffffffffffffffffffffffffffff168152505080806112bd906123db565b915050611242565b5080935050505090565b6005602052805f5260405f205f91509050805f015f9054906101000a900460ff1690805f0160019054906101000a900460ff16905082565b60055f8473ffffffffffffffffffffffffffffffffffffffff1673ffffffffffffffffffffffffffffffffffffffff1681526020019081526020015f205f015f9054906101000a900460ff16611392576040517f08c379a00000000000000000000000000000000000000000000000000000000081526004016113899061246c565b60405180910390fd5b60055f8473ffffffffffffffffffffffffffffffffffffffff1673ffffffffffffffffffffffffffffffffffffffff1681526020019081526020015f205f0160019054906101000a900460ff161561141f576040517f08c379a000000000000000000000000000000000000000000000000000000000815260040161141690612501565b60405180910390fd5b5f8273ffffffffffffffffffffffffffffffffffffffff1663dd62ed3e33306040518363ffffffff1660e01b815260040161145b92919061251f565b602060405180830381865afa158015611476573d5f803e3d5ffd5b505050506040513d601f19601f8201168201806040525081019061149a919061255a565b90505f82826114a99190612585565b90508373ffffffffffffffffffffffffffffffffffffffff1663095ea7b330836040518363ffffffff1660e01b81526004016114e69291906121af565b6020604051808303815f875af1158015611502573d5f803e3d5ffd5b505050506040513d601f19601f820116820180604052508101906115269190612200565b508373ffffffffffffffffffffffffffffffffffffffff166323b872dd3330866040518463ffffffff1660e01b8152600401611564939291906125b8565b6020604051808303815f875af1158015611580573d5f803e3d5ffd5b505050506040513d601f19601f820116820180604052508101906115a49190612200565b508260065f3373ffffffffffffffffffffffffffffffffffffffff1673ffffffffffffffffffffffffffffffffffffffff1681526020019081526020015f205f8773ffffffffffffffffffffffffffffffffffffffff1673ffffffffffffffffffffffffffffffffffffffff1681526020019081526020015f205f8673ffffffffffffffffffffffffffffffffffffffff1673ffffffffffffffffffffffffffffffffffffffff1681526020019081526020015f205f015f8282546116699190612585565b925050819055508260065f3373ffffffffffffffffffffffffffffffffffffffff1673ffffffffffffffffffffffffffffffffffffffff1681526020019081526020015f205f8773ffffffffffffffffffffffffffffffffffffffff1673ffffffffffffffffffffffffffffffffffffffff1681526020019081526020015f205f8673ffffffffffffffffffffffffffffffffffffffff1673ffffffffffffffffffffffffffffffffffffffff1681526020019081526020015f206001015f8282546117359190612585565b925050819055508260055f8773ffffffffffffffffffffffffffffffffffffffff1673ffffffffffffffffffffffffffffffffffffffff1681526020019081526020015f206001015f8673ffffffffffffffffffffffffffffffffffffffff1673ffffffffffffffffffffffffffffffffffffffff1681526020019081526020015f205f8282546117c69190612585565b92505081905550825f808282546117dd9190612585565b925050819055508373ffffffffffffffffffffffffffffffffffffffff168573ffffffffffffffffffffffffffffffffffffffff163373ffffffffffffffffffffffffffffffffffffffff167fbe2d7a78cc1b5e2bfa97c379430571e5c9a49f6ae43f84624848e25157fb30cf866040516118589190611e1d565b60405180910390a45050505050565b60045f3373ffffffffffffffffffffffffffffffffffffffff1673ffffffffffffffffffffffffffffffffffffffff1681526020019081526020015f205f9054906101000a900460ff166118f0576040517f08c379a00000000000000000000000000000000000000000000000000000000081526004016118e7906122fb565b60405180910390fd5b5f73ffffffffffffffffffffffffffffffffffffffff168173ffffffffffffffffffffffffffffffffffffffff160361195e576040517f08c379a000000000000000000000000000000000000000000000000000000000815260040161195590612637565b60405180910390fd5b60045f8273ffffffffffffffffffffffffffffffffffffffff1673ffffffffffffffffffffffffffffffffffffffff1681526020019081526020015f205f9054906101000a900460ff16156119e8576040517f08c379a00000000000000000000000000000000000000000000000000000000081526004016119df9061269f565b60405180910390fd5b600160045f8373ffffffffffffffffffffffffffffffffffffffff1673ffffffffffffffffffffffffffffffffffffffff1681526020019081526020015f205f6101000a81548160ff021916908315150217905550600181908060018154018082558091505060019003905f5260205f20015f9091909190916101000a81548173ffffffffffffffffffffffffffffffffffffffff021916908373ffffffffffffffffffffffffffffffffffffffff1602179055508073ffffffffffffffffffffffffffffffffffffffff167f2860b5ba44f983f8f363ee6eeb3c24cbca3096803fbdd5129b9e253f01cac07660405160405180910390a250565b60045f3373ffffffffffffffffffffffffffffffffffffffff1673ffffffffffffffffffffffffffffffffffffffff1681526020019081526020015f205f9054906101000a900460ff16611b6c576040517f08c379a0000000000000000000000000000000000000000000000000000000008152600401611b63906122fb565b60405180910390fd5b600160055f8373ffffffffffffffffffffffffffffffffffffffff1673ffffffffffffffffffffffffffffffffffffffff1681526020019081526020015f205f015f6101000a81548160ff021916908315150217905550600281908060018154018082558091505060019003905f5260205f20015f9091909190916101000a81548173ffffffffffffffffffffffffffffffffffffffff021916908373ffffffffffffffffffffffffffffffffffffffff1602179055508073ffffffffffffffffffffffffffffffffffffffff167f4a6deab8cf14a40f9388fd118ec277f31a67b616473839fa23330a3ef9e1dc0560405160405180910390a250565b5f5481565b60606001805480602002602001604051908101604052809291908181526020018280548015611cef57602002820191905f5260205f20905b815f9054906101000a900473ffffffffffffffffffffffffffffffffffffffff1673ffffffffffffffffffffffffffffffffffffffff1681526020019060010190808311611ca6575b5050505050905090565b6006602052825f5260405f20602052815f5260405f20602052805f5260405f205f925092505050805f015490806001015490806002015f9054906101000a900473ffffffffffffffffffffffffffffffffffffffff16905083565b5f80fd5b5f819050919050565b611d6a81611d58565b8114611d74575f80fd5b50565b5f81359050611d8581611d61565b92915050565b5f60208284031215611da057611d9f611d54565b5b5f611dad84828501611d77565b91505092915050565b5f73ffffffffffffffffffffffffffffffffffffffff82169050919050565b5f611ddf82611db6565b9050919050565b611def81611dd5565b82525050565b5f602082019050611e085f830184611de6565b92915050565b611e1781611d58565b82525050565b5f602082019050611e305f830184611e0e565b92915050565b5f606082019050611e495f830186611e0e565b611e566020830185611e0e565b611e636040830184611de6565b949350505050565b611e7481611dd5565b8114611e7e575f80fd5b50565b5f81359050611e8f81611e6b565b92915050565b5f8060408385031215611eab57611eaa611d54565b5b5f611eb885828601611e81565b9250506020611ec985828601611e81565b9150509250929050565b5f60208284031215611ee857611ee7611d54565b5b5f611ef584828501611e81565b91505092915050565b5f81519050919050565b5f82825260208201905092915050565b5f819050602082019050919050565b611f3081611dd5565b82525050565b5f611f418383611f27565b60208301905092915050565b5f602082019050919050565b5f611f6382611efe565b611f6d8185611f08565b9350611f7883611f18565b805f5b83811015611fa8578151611f8f8882611f36565b9750611f9a83611f4d565b925050600181019050611f7b565b5085935050505092915050565b5f6020820190508181035f830152611fcd8184611f59565b905092915050565b5f8115159050919050565b611fe981611fd5565b82525050565b5f6020820190506120025f830184611fe0565b92915050565b5f60408201905061201b5f830185611fe0565b6120286020830184611fe0565b9392505050565b5f805f6060848603121561204657612045611d54565b5b5f61205386828701611e81565b935050602061206486828701611e81565b925050604061207586828701611d77565b9150509250925092565b5f805f6060848603121561209657612095611d54565b5b5f6120a386828701611e81565b93505060206120b486828701611e81565b92505060406120c586828701611e81565b9150509250925092565b5f82825260208201905092915050565b7f42616e6b20686173206e6f74206661696c6564000000000000000000000000005f82015250565b5f6121136013836120cf565b915061211e826120df565b602082019050919050565b5f6020820190508181035f83015261214081612107565b9050919050565b7f4e6f20696e737572656420616d6f756e7420746f20636c61696d0000000000005f82015250565b5f61217b601a836120cf565b915061218682612147565b602082019050919050565b5f6020820190508181035f8301526121a88161216f565b9050919050565b5f6040820190506121c25f830185611de6565b6121cf6020830184611e0e565b9392505050565b6121df81611fd5565b81146121e9575f80fd5b50565b5f815190506121fa816121d6565b92915050565b5f6020828403121561221557612214611d54565b5b5f612222848285016121ec565b91505092915050565b7f4e487b71000000000000000000000000000000000000000000000000000000005f52601160045260245ffd5b5f61226282611d58565b915061226d83611d58565b92508282039050818111156122855761228461222b565b5b92915050565b7f4f6e6c7920726567756c61746f722063616e20706572666f726d2074686973205f8201527f616374696f6e0000000000000000000000000000000000000000000000000000602082015250565b5f6122e56026836120cf565b91506122f08261228b565b604082019050919050565b5f6020820190508181035f830152612312816122d9565b9050919050565b7f4e6f74206120726567756c61746f7200000000000000000000000000000000005f82015250565b5f61234d600f836120cf565b915061235882612319565b602082019050919050565b5f6020820190508181035f83015261237a81612341565b9050919050565b7f4e487b71000000000000000000000000000000000000000000000000000000005f52603260045260245ffd5b7f4e487b71000000000000000000000000000000000000000000000000000000005f52603160045260245ffd5b5f6123e582611d58565b91507fffffffffffffffffffffffffffffffffffffffffffffffffffffffffffffffff82036124175761241661222b565b5b600182019050919050565b7f42616e6b206973206e6f742072656769737465726564000000000000000000005f82015250565b5f6124566016836120cf565b915061246182612422565b602082019050919050565b5f6020820190508181035f8301526124838161244a565b9050919050565b7f4e487b71000000000000000000000000000000000000000000000000000000005f52604160045260245ffd5b7f42616e6b20686173206661696c656400000000000000000000000000000000005f82015250565b5f6124eb600f836120cf565b91506124f6826124b7565b602082019050919050565b5f6020820190508181035f830152612518816124df565b9050919050565b5f6040820190506125325f830185611de6565b61253f6020830184611de6565b9392505050565b5f8151905061255481611d61565b92915050565b5f6020828403121561256f5761256e611d54565b5b5f61257c84828501612546565b91505092915050565b5f61258f82611d58565b915061259a83611d58565b92508282019050808211156125b2576125b161222b565b5b92915050565b5f6060820190506125cb5f830186611de6565b6125d86020830185611de6565b6125e56040830184611e0e565b949350505050565b7f496e76616c6964206164647265737300000000000000000000000000000000005f82015250565b5f612621600f836120cf565b915061262c826125ed565b602082019050919050565b5f6020820190508181035f83015261264e81612615565b9050919050565b7f4164647265737320697320616c7265616479206120726567756c61746f7200005f82015250565b5f612689601e836120cf565b915061269482612655565b602082019050919050565b5f6020820190508181035f8301526126b68161267d565b905091905056fea2646970667358221220264f6054fc3a04c63efac9ed2f1832080faea9d335a81896bb9fa05b4d862a6764736f6c63430008140033",
  "immutableReferences": {},
  "source": "// File: @openzeppelin/contracts/token/ERC20/IERC20.sol\n\n\n// OpenZeppelin Contracts (last updated v5.0.0) (token/ERC20/IERC20.sol)\n\npragma solidity ^0.8.20;\n\n/**\n * @dev Interface of the ERC20 standard as defined in the EIP.\n */\ninterface IERC20 {\n    /**\n     * @dev Emitted when `value` tokens are moved from one account (`from`) to\n     * another (`to`).\n     *\n     * Note that `value` may be zero.\n     */\n    event Transfer(address indexed from, address indexed to, uint256 value);\n\n    /**\n     * @dev Emitted when the allowance of a `spender` for an `owner` is set by\n     * a call to {approve}. `value` is the new allowance.\n     */\n    event Approval(address indexed owner, address indexed spender, uint256 value);\n\n    /**\n     * @dev Returns the value of tokens in existence.\n     */\n    function totalSupply() external view returns (uint256);\n\n    /**\n     * @dev Returns the value of tokens owned by `account`.\n     */\n    function balanceOf(address account) external view returns (uint256);\n\n    /**\n     * @dev Moves a `value` amount of tokens from the caller's account to `to`.\n     *\n     * Returns a boolean value indicating whether the operation succeeded.\n     *\n     * Emits a {Transfer} event.\n     */\n    function transfer(address to, uint256 value) external returns (bool);\n\n    /**\n     * @dev Returns the remaining number of tokens that `spender` will be\n     * allowed to spend on behalf of `owner` through {transferFrom}. This is\n     * zero by default.\n     *\n     * This value changes when {approve} or {transferFrom} are called.\n     */\n    function allowance(address owner, address spender) external view returns (uint256);\n\n    /**\n     * @dev Sets a `value` amount of tokens as the allowance of `spender` over the\n     * caller's tokens.\n     *\n     * Returns a boolean value indicating whether the operation succeeded.\n     *\n     * IMPORTANT: Beware that changing an allowance with this method brings the risk\n     * that someone may use both the old and the new allowance by unfortunate\n     * transaction ordering. One possible solution to mitigate this race\n     * condition is to first reduce the spender's allowance to 0 and set the\n     * desired value afterwards:\n     * https://github.com/ethereum/EIPs/issues/20#issuecomment-263524729\n     *\n     * Emits an {Approval} event.\n     */\n    function approve(address spender, uint256 value) external returns (bool);\n\n    /**\n     * @dev Moves a `value` amount of tokens from `from` to `to` using the\n     * allowance mechanism. `value` is then deducted from the caller's\n     * allowance.\n     *\n     * Returns a boolean value indicating whether the operation succeeded.\n     *\n     * Emits a {Transfer} event.\n     */\n    function transferFrom(address from, address to, uint256 value) external returns (bool);\n}\n\n// File: OnChainFDIC.sol\n\n\npragma solidity ^0.8.20;\n\n\ncontract ERC20FDIC {\n    struct Bank {\n        bool isRegistered;\n        bool isFailed;\n        mapping(address => uint256) totalDeposits;\n    }\n\n    struct Depositor {\n        uint256 amount;\n        uint256 insuredAmount;\n        address token;\n    }\n\n    uint256 public insurancePoolBalance;\n\n    address[] public regulators; // an array to store multiple regulators\n    address[] public bankArray;\n    Depositor[] public depositArray;\n\n    mapping(address => bool) public isRegulator; // mapping to check if an address is a regulator\n    mapping(address => Bank) public banks;\n    mapping(address => mapping(address => mapping(address => Depositor))) public deposits; // depositor => bank => Depositor\n\n    event BankRegistered(address indexed bank);\n    event DepositMade(address indexed depositor, address indexed bank, address indexed token, uint256 amount);\n    event BankFailed(address indexed bank);\n    event BankUnfailed(address indexed bank);\n    event CompensationPaid(address indexed depositor, address indexed bank, address indexed token, uint256 amount);\n    event RegulatorAdded(address indexed regulator);\n    event RegulatorRemoved(address indexed regulator);\n\n\n    modifier onlyRegulator() {\n        require(isRegulator[msg.sender], \"Only regulator can perform this action\");\n        _;\n    }\n\n    constructor() {\n        isRegulator[msg.sender] = true;\n        regulators.push(msg.sender);\n        insurancePoolBalance = 0;\n    }\n\n    // Function to add a new regulator\n    function addRegulator(address _newRegulator) external onlyRegulator {\n        require(_newRegulator != address(0), \"Invalid address\");\n        require(!isRegulator[_newRegulator], \"Address is already a regulator\");\n        \n        isRegulator[_newRegulator] = true;\n        regulators.push(_newRegulator);\n        \n        emit RegulatorAdded(_newRegulator);\n    }\n\n    // Function to remove a regulator\n    function removeRegulator(address _regulator) external onlyRegulator {\n        require(isRegulator[_regulator], \"Not a regulator\");\n        \n        isRegulator[_regulator] = false;\n        \n        // Optionally, you can remove from the regulators array\n        for (uint256 i = 0; i < regulators.length; i++) {\n            if (regulators[i] == _regulator) {\n                regulators[i] = regulators[regulators.length - 1]; // Move the last element to the removed spot\n                regulators.pop(); // Remove the last element\n                break; // Exit the loop once removed\n            }\n        }\n        \n        emit RegulatorRemoved(_regulator);\n    }\n\n    // Function to get all regulators\n    function getRegulators() public view returns (address[] memory) {\n        return regulators;\n    }\n\n    // Function for regulator to register banks\n    function registerBank(address _bank) external onlyRegulator {\n        banks[_bank].isRegistered = true;\n        bankArray.push(_bank);\n        emit BankRegistered(_bank);\n    }\n\n    // Function for regulator to get all banks\n    function getBanks() public view returns (address[] memory) {\n        return bankArray;\n    }\n    \n\n    // Function for regulator to get all banks\n    function getFailedBanks() public view returns (address[] memory) {\n        // Create a temporary array to hold the addresses of failed banks\n        address[] memory failedBanksTemp = new address[](bankArray.length);\n        uint256 count = 0;\n\n        // Iterate over all bank addresses and collect failed ones\n        for (uint256 i = 0; i < bankArray.length; i++) {\n            if (banks[bankArray[i]].isFailed) {\n                failedBanksTemp[count] = bankArray[i];\n                count++;\n            }\n        }\n\n        // Create a fixed-size array to return with only the failed banks\n        address[] memory failedBanks = new address[](count);\n        for (uint256 j = 0; j < count; j++) {\n            failedBanks[j] = failedBanksTemp[j];\n        }\n\n        return failedBanks; // Return the array of failed banks\n    }\n\n\n    // Depositors deposit funds into banks\n    function deposit(address _bank, address _token, uint256 _amount) external {\n        require(banks[_bank].isRegistered, \"Bank is not registered\");\n        require(!banks[_bank].isFailed, \"Bank has failed\");\n\n        // Transfer the ERC20 tokens from the sender to this contract\n        uint256 currentAllowance = IERC20(_token).allowance(msg.sender, address(this));\n        uint256 newAllowance = currentAllowance + _amount;\n        IERC20(_token).approve(address(this), newAllowance);\n\n        IERC20(_token).transferFrom(msg.sender, address(this), _amount);\n\n        deposits[msg.sender][_bank][_token].amount += _amount;\n        deposits[msg.sender][_bank][_token].insuredAmount += _amount;\n        banks[_bank].totalDeposits[_token] += _amount;\n        insurancePoolBalance += _amount;\n\n        emit DepositMade(msg.sender, _bank, _token, _amount);\n    }\n\n    // Regulator marks bank as failed\n    function failBank(address _bank) external onlyRegulator {\n        require(banks[_bank].isRegistered, \"Bank is not registered\");\n        banks[_bank].isFailed = true;\n        emit BankFailed(_bank);\n    }\n\n        // Regulator unfails bank\n    function unfailBank(address _bank) external onlyRegulator {\n        require(banks[_bank].isRegistered, \"Bank is not registered\");\n        require(banks[_bank].isFailed, \"Bank has not failed\");\n        banks[_bank].isFailed = false;\n        emit BankUnfailed(_bank);\n    }\n\n    // Depositors claim insurance after bank failure\n    function claimInsurance(address _bank, address _token) external {\n        require(banks[_bank].isFailed, \"Bank has not failed\");\n        uint256 compensation = deposits[msg.sender][_bank][_token].insuredAmount;\n        require(compensation > 0, \"No insured amount to claim\");\n\n        // Pay compensation in ERC-20 tokens\n        IERC20(_token).transfer( msg.sender, compensation);\n        insurancePoolBalance -= compensation;\n        emit CompensationPaid(msg.sender, _bank, _token, compensation);\n\n        // Reset depositor's insured amount to prevent re-entrancy\n        deposits[msg.sender][_bank][_token].insuredAmount = 0;\n\n    }\n\n    // Function to fund the insurance pool (could be from bank premiums)\n    receive() external payable {}\n\n    // Function to check the contract balance (insurance pool)\n    function getInsurancePoolBalance() external view returns (uint256) {\n        return insurancePoolBalance;\n    }\n}",
  "sourcePath": "/Users/aditpatel/Desktop/temp/fdic-dapp/contracts/ERC20DFDIC.sol",
  "compiler": {
    "name": "solc",
    "version": "0.8.20+commit.a1b79de6.Emscripten.clang"
  },
  "schemaVersion": "3.4.16",
  "updatedAt": "2024-09-25T19:06:05.641Z",
  "networkType": "ethereum",
  "devdoc": {
    "kind": "dev",
    "methods": {},
    "version": 1
  },
  "userdoc": {
    "kind": "user",
    "methods": {},
    "version": 1
  }
}