{
  "contractName": "ERC20FDIC",
  "abi": [
    {
      "inputs": [],
      "stateMutability": "nonpayable",
      "type": "constructor"
    },
    {
      "anonymous": false,
      "inputs": [
        {
          "indexed": true,
          "internalType": "address",
          "name": "bank",
          "type": "address"
        }
      ],
      "name": "BankFailed",
      "type": "event"
    },
    {
      "anonymous": false,
      "inputs": [
        {
          "indexed": true,
          "internalType": "address",
          "name": "bank",
          "type": "address"
        }
      ],
      "name": "BankRegistered",
      "type": "event"
    },
    {
      "anonymous": false,
      "inputs": [
        {
          "indexed": true,
          "internalType": "address",
          "name": "depositor",
          "type": "address"
        },
        {
          "indexed": true,
          "internalType": "address",
          "name": "bank",
          "type": "address"
        },
        {
          "indexed": false,
          "internalType": "uint256",
          "name": "amount",
          "type": "uint256"
        }
      ],
      "name": "CompensationPaid",
      "type": "event"
    },
    {
      "anonymous": false,
      "inputs": [
        {
          "indexed": true,
          "internalType": "address",
          "name": "depositor",
          "type": "address"
        },
        {
          "indexed": true,
          "internalType": "address",
          "name": "bank",
          "type": "address"
        },
        {
          "indexed": false,
          "internalType": "uint256",
          "name": "amount",
          "type": "uint256"
        }
      ],
      "name": "DepositMade",
      "type": "event"
    },
    {
      "anonymous": false,
      "inputs": [
        {
          "indexed": true,
          "internalType": "address",
          "name": "regulator",
          "type": "address"
        }
      ],
      "name": "RegulatorAdded",
      "type": "event"
    },
    {
      "anonymous": false,
      "inputs": [
        {
          "indexed": true,
          "internalType": "address",
          "name": "regulator",
          "type": "address"
        }
      ],
      "name": "RegulatorRemoved",
      "type": "event"
    },
    {
      "inputs": [
        {
          "internalType": "address",
          "name": "",
          "type": "address"
        }
      ],
      "name": "banks",
      "outputs": [
        {
          "internalType": "bool",
          "name": "isRegistered",
          "type": "bool"
        },
        {
          "internalType": "bool",
          "name": "isFailed",
          "type": "bool"
        }
      ],
      "stateMutability": "view",
      "type": "function",
      "constant": true
    },
    {
      "inputs": [
        {
          "internalType": "address",
          "name": "",
          "type": "address"
        },
        {
          "internalType": "address",
          "name": "",
          "type": "address"
        },
        {
          "internalType": "address",
          "name": "",
          "type": "address"
        }
      ],
      "name": "deposits",
      "outputs": [
        {
          "internalType": "uint256",
          "name": "amount",
          "type": "uint256"
        },
        {
          "internalType": "uint256",
          "name": "insuredAmount",
          "type": "uint256"
        },
        {
          "internalType": "address",
          "name": "token",
          "type": "address"
        }
      ],
      "stateMutability": "view",
      "type": "function",
      "constant": true
    },
    {
      "inputs": [
        {
          "internalType": "address",
          "name": "",
          "type": "address"
        }
      ],
      "name": "isRegulator",
      "outputs": [
        {
          "internalType": "bool",
          "name": "",
          "type": "bool"
        }
      ],
      "stateMutability": "view",
      "type": "function",
      "constant": true
    },
    {
      "inputs": [
        {
          "internalType": "uint256",
          "name": "",
          "type": "uint256"
        }
      ],
      "name": "regulators",
      "outputs": [
        {
          "internalType": "address",
          "name": "",
          "type": "address"
        }
      ],
      "stateMutability": "view",
      "type": "function",
      "constant": true
    },
    {
      "stateMutability": "payable",
      "type": "receive",
      "payable": true
    },
    {
      "inputs": [
        {
          "internalType": "address",
          "name": "_newRegulator",
          "type": "address"
        }
      ],
      "name": "addRegulator",
      "outputs": [],
      "stateMutability": "nonpayable",
      "type": "function"
    },
    {
      "inputs": [
        {
          "internalType": "address",
          "name": "_regulator",
          "type": "address"
        }
      ],
      "name": "removeRegulator",
      "outputs": [],
      "stateMutability": "nonpayable",
      "type": "function"
    },
    {
      "inputs": [
        {
          "internalType": "address",
          "name": "_bank",
          "type": "address"
        }
      ],
      "name": "registerBank",
      "outputs": [],
      "stateMutability": "nonpayable",
      "type": "function"
    },
    {
      "inputs": [
        {
          "internalType": "address",
          "name": "_bank",
          "type": "address"
        },
        {
          "internalType": "address",
          "name": "_token",
          "type": "address"
        },
        {
          "internalType": "uint256",
          "name": "_amount",
          "type": "uint256"
        }
      ],
      "name": "deposit",
      "outputs": [],
      "stateMutability": "nonpayable",
      "type": "function"
    },
    {
      "inputs": [
        {
          "internalType": "address",
          "name": "_bank",
          "type": "address"
        }
      ],
      "name": "failBank",
      "outputs": [],
      "stateMutability": "nonpayable",
      "type": "function"
    },
    {
      "inputs": [
        {
          "internalType": "address",
          "name": "_bank",
          "type": "address"
        },
        {
          "internalType": "address",
          "name": "_token",
          "type": "address"
        }
      ],
      "name": "claimInsurance",
      "outputs": [],
      "stateMutability": "nonpayable",
      "type": "function"
    },
    {
      "inputs": [],
      "name": "getInsurancePoolBalance",
      "outputs": [
        {
          "internalType": "uint256",
          "name": "",
          "type": "uint256"
        }
      ],
      "stateMutability": "view",
      "type": "function",
      "constant": true
    }
  ],
  "bytecode": "0x608060405234801561000f575f80fd5b506001805f3373ffffffffffffffffffffffffffffffffffffffff1673ffffffffffffffffffffffffffffffffffffffff1681526020019081526020015f205f6101000a81548160ff0219169083151502179055505f33908060018154018082558091505060019003905f5260205f20015f9091909190916101000a81548173ffffffffffffffffffffffffffffffffffffffff021916908373ffffffffffffffffffffffffffffffffffffffff160217905550611c4a806100d05f395ff3fe60806040526004361061009f575f3560e01c80635e01426f116100635780635e01426f1461019c57806380c3b8c2146101c45780638340f54914610201578063ac63f3c714610229578063c367229914610251578063ee2578ab14610279576100a6565b806316e572c0146100aa57806330907baa146100d4578063379f5fed146100fc57806353986e751461012457806354fc916914610160576100a6565b366100a657005b5f80fd5b3480156100b5575f80fd5b506100be6102b7565b6040516100cb91906113c7565b60405180910390f35b3480156100df575f80fd5b506100fa60048036038101906100f5919061143e565b6102be565b005b348015610107575f80fd5b50610122600480360381019061011d919061147c565b6105e7565b005b34801561012f575f80fd5b5061014a600480360381019061014591906114d1565b61090d565b604051610157919061150b565b60405180910390f35b34801561016b575f80fd5b506101866004803603810190610181919061147c565b610947565b604051610193919061153e565b60405180910390f35b3480156101a7575f80fd5b506101c260048036038101906101bd919061147c565b610964565b005b3480156101cf575f80fd5b506101ea60048036038101906101e5919061147c565b610b16565b6040516101f8929190611557565b60405180910390f35b34801561020c575f80fd5b506102276004803603810190610222919061157e565b610b4e565b005b348015610234575f80fd5b5061024f600480360381019061024a919061147c565b610fb4565b005b34801561025c575f80fd5b506102776004803603810190610272919061147c565b61122e565b005b348015610284575f80fd5b5061029f600480360381019061029a91906115ce565b611354565b6040516102ae9392919061161e565b60405180910390f35b5f47905090565b60025f8373ffffffffffffffffffffffffffffffffffffffff1673ffffffffffffffffffffffffffffffffffffffff1681526020019081526020015f205f0160019054906101000a900460ff1661034a576040517f08c379a0000000000000000000000000000000000000000000000000000000008152600401610341906116ad565b60405180910390fd5b5f60035f3373ffffffffffffffffffffffffffffffffffffffff1673ffffffffffffffffffffffffffffffffffffffff1681526020019081526020015f205f8473ffffffffffffffffffffffffffffffffffffffff1673ffffffffffffffffffffffffffffffffffffffff1681526020019081526020015f205f8373ffffffffffffffffffffffffffffffffffffffff1673ffffffffffffffffffffffffffffffffffffffff1681526020019081526020015f206001015490505f8111610446576040517f08c379a000000000000000000000000000000000000000000000000000000000815260040161043d90611715565b60405180910390fd5b5f60035f3373ffffffffffffffffffffffffffffffffffffffff1673ffffffffffffffffffffffffffffffffffffffff1681526020019081526020015f205f8573ffffffffffffffffffffffffffffffffffffffff1673ffffffffffffffffffffffffffffffffffffffff1681526020019081526020015f205f8473ffffffffffffffffffffffffffffffffffffffff1673ffffffffffffffffffffffffffffffffffffffff1681526020019081526020015f20600101819055508173ffffffffffffffffffffffffffffffffffffffff1663a9059cbb33836040518363ffffffff1660e01b815260040161053c929190611733565b6020604051808303815f875af1158015610558573d5f803e3d5ffd5b505050506040513d601f19601f8201168201806040525081019061057c9190611784565b508273ffffffffffffffffffffffffffffffffffffffff163373ffffffffffffffffffffffffffffffffffffffff167f78e04c81b764ae74a7ba0d7de58b2f955845aab3995a95237d46404b2526a54e836040516105da91906113c7565b60405180910390a3505050565b60015f3373ffffffffffffffffffffffffffffffffffffffff1673ffffffffffffffffffffffffffffffffffffffff1681526020019081526020015f205f9054906101000a900460ff16610670576040517f08c379a00000000000000000000000000000000000000000000000000000000081526004016106679061181f565b60405180910390fd5b60015f8273ffffffffffffffffffffffffffffffffffffffff1673ffffffffffffffffffffffffffffffffffffffff1681526020019081526020015f205f9054906101000a900460ff166106f9576040517f08c379a00000000000000000000000000000000000000000000000000000000081526004016106f090611887565b60405180910390fd5b5f60015f8373ffffffffffffffffffffffffffffffffffffffff1673ffffffffffffffffffffffffffffffffffffffff1681526020019081526020015f205f6101000a81548160ff0219169083151502179055505f5b5f805490508110156108c6578173ffffffffffffffffffffffffffffffffffffffff165f8281548110610785576107846118a5565b5b905f5260205f20015f9054906101000a900473ffffffffffffffffffffffffffffffffffffffff1673ffffffffffffffffffffffffffffffffffffffff16036108b3575f60015f805490506107da91906118ff565b815481106107eb576107ea6118a5565b5b905f5260205f20015f9054906101000a900473ffffffffffffffffffffffffffffffffffffffff165f8281548110610826576108256118a5565b5b905f5260205f20015f6101000a81548173ffffffffffffffffffffffffffffffffffffffff021916908373ffffffffffffffffffffffffffffffffffffffff1602179055505f80548061087c5761087b611932565b5b600190038181905f5260205f20015f6101000a81549073ffffffffffffffffffffffffffffffffffffffff021916905590556108c6565b80806108be9061195f565b91505061074f565b508073ffffffffffffffffffffffffffffffffffffffff167fc8ecc453f78c13ccc7596603b61935f29b99dc15bb91b91647e1ccf2469ad00a60405160405180910390a250565b5f818154811061091b575f80fd5b905f5260205f20015f915054906101000a900473ffffffffffffffffffffffffffffffffffffffff1681565b6001602052805f5260405f205f915054906101000a900460ff1681565b60015f3373ffffffffffffffffffffffffffffffffffffffff1673ffffffffffffffffffffffffffffffffffffffff1681526020019081526020015f205f9054906101000a900460ff166109ed576040517f08c379a00000000000000000000000000000000000000000000000000000000081526004016109e49061181f565b60405180910390fd5b60025f8273ffffffffffffffffffffffffffffffffffffffff1673ffffffffffffffffffffffffffffffffffffffff1681526020019081526020015f205f015f9054906101000a900460ff16610a78576040517f08c379a0000000000000000000000000000000000000000000000000000000008152600401610a6f906119f0565b60405180910390fd5b600160025f8373ffffffffffffffffffffffffffffffffffffffff1673ffffffffffffffffffffffffffffffffffffffff1681526020019081526020015f205f0160016101000a81548160ff0219169083151502179055508073ffffffffffffffffffffffffffffffffffffffff167f7f68dd0ffc239a74f0906890f089856577db0e414437571ee5da78441f7222fe60405160405180910390a250565b6002602052805f5260405f205f91509050805f015f9054906101000a900460ff1690805f0160019054906101000a900460ff16905082565b60025f8473ffffffffffffffffffffffffffffffffffffffff1673ffffffffffffffffffffffffffffffffffffffff1681526020019081526020015f205f015f9054906101000a900460ff16610bd9576040517f08c379a0000000000000000000000000000000000000000000000000000000008152600401610bd0906119f0565b60405180910390fd5b60025f8473ffffffffffffffffffffffffffffffffffffffff1673ffffffffffffffffffffffffffffffffffffffff1681526020019081526020015f205f0160019054906101000a900460ff1615610c66576040517f08c379a0000000000000000000000000000000000000000000000000000000008152600401610c5d90611a58565b60405180910390fd5b5f8273ffffffffffffffffffffffffffffffffffffffff1663dd62ed3e33306040518363ffffffff1660e01b8152600401610ca2929190611a76565b602060405180830381865afa158015610cbd573d5f803e3d5ffd5b505050506040513d601f19601f82011682018060405250810190610ce19190611ab1565b90505f8282610cf09190611adc565b90508373ffffffffffffffffffffffffffffffffffffffff1663095ea7b330836040518363ffffffff1660e01b8152600401610d2d929190611733565b6020604051808303815f875af1158015610d49573d5f803e3d5ffd5b505050506040513d601f19601f82011682018060405250810190610d6d9190611784565b508373ffffffffffffffffffffffffffffffffffffffff166323b872dd3330866040518463ffffffff1660e01b8152600401610dab93929190611b0f565b6020604051808303815f875af1158015610dc7573d5f803e3d5ffd5b505050506040513d601f19601f82011682018060405250810190610deb9190611784565b508260035f3373ffffffffffffffffffffffffffffffffffffffff1673ffffffffffffffffffffffffffffffffffffffff1681526020019081526020015f205f8773ffffffffffffffffffffffffffffffffffffffff1673ffffffffffffffffffffffffffffffffffffffff1681526020019081526020015f205f8673ffffffffffffffffffffffffffffffffffffffff1673ffffffffffffffffffffffffffffffffffffffff1681526020019081526020015f205f015f828254610eb09190611adc565b925050819055508260025f8773ffffffffffffffffffffffffffffffffffffffff1673ffffffffffffffffffffffffffffffffffffffff1681526020019081526020015f206001015f8673ffffffffffffffffffffffffffffffffffffffff1673ffffffffffffffffffffffffffffffffffffffff1681526020019081526020015f205f828254610f419190611adc565b925050819055508473ffffffffffffffffffffffffffffffffffffffff163373ffffffffffffffffffffffffffffffffffffffff167f1de3ece35391f6bba650736f2d5d3f12e2cfc54538a340cc5d762d34ca449de785604051610fa591906113c7565b60405180910390a35050505050565b60015f3373ffffffffffffffffffffffffffffffffffffffff1673ffffffffffffffffffffffffffffffffffffffff1681526020019081526020015f205f9054906101000a900460ff1661103d576040517f08c379a00000000000000000000000000000000000000000000000000000000081526004016110349061181f565b60405180910390fd5b5f73ffffffffffffffffffffffffffffffffffffffff168173ffffffffffffffffffffffffffffffffffffffff16036110ab576040517f08c379a00000000000000000000000000000000000000000000000000000000081526004016110a290611b8e565b60405180910390fd5b60015f8273ffffffffffffffffffffffffffffffffffffffff1673ffffffffffffffffffffffffffffffffffffffff1681526020019081526020015f205f9054906101000a900460ff1615611135576040517f08c379a000000000000000000000000000000000000000000000000000000000815260040161112c90611bf6565b60405180910390fd5b6001805f8373ffffffffffffffffffffffffffffffffffffffff1673ffffffffffffffffffffffffffffffffffffffff1681526020019081526020015f205f6101000a81548160ff0219169083151502179055505f81908060018154018082558091505060019003905f5260205f20015f9091909190916101000a81548173ffffffffffffffffffffffffffffffffffffffff021916908373ffffffffffffffffffffffffffffffffffffffff1602179055508073ffffffffffffffffffffffffffffffffffffffff167f2860b5ba44f983f8f363ee6eeb3c24cbca3096803fbdd5129b9e253f01cac07660405160405180910390a250565b60015f3373ffffffffffffffffffffffffffffffffffffffff1673ffffffffffffffffffffffffffffffffffffffff1681526020019081526020015f205f9054906101000a900460ff166112b7576040517f08c379a00000000000000000000000000000000000000000000000000000000081526004016112ae9061181f565b60405180910390fd5b600160025f8373ffffffffffffffffffffffffffffffffffffffff1673ffffffffffffffffffffffffffffffffffffffff1681526020019081526020015f205f015f6101000a81548160ff0219169083151502179055508073ffffffffffffffffffffffffffffffffffffffff167f4a6deab8cf14a40f9388fd118ec277f31a67b616473839fa23330a3ef9e1dc0560405160405180910390a250565b6003602052825f5260405f20602052815f5260405f20602052805f5260405f205f925092505050805f015490806001015490806002015f9054906101000a900473ffffffffffffffffffffffffffffffffffffffff16905083565b5f819050919050565b6113c1816113af565b82525050565b5f6020820190506113da5f8301846113b8565b92915050565b5f80fd5b5f73ffffffffffffffffffffffffffffffffffffffff82169050919050565b5f61140d826113e4565b9050919050565b61141d81611403565b8114611427575f80fd5b50565b5f8135905061143881611414565b92915050565b5f8060408385031215611454576114536113e0565b5b5f6114618582860161142a565b92505060206114728582860161142a565b9150509250929050565b5f60208284031215611491576114906113e0565b5b5f61149e8482850161142a565b91505092915050565b6114b0816113af565b81146114ba575f80fd5b50565b5f813590506114cb816114a7565b92915050565b5f602082840312156114e6576114e56113e0565b5b5f6114f3848285016114bd565b91505092915050565b61150581611403565b82525050565b5f60208201905061151e5f8301846114fc565b92915050565b5f8115159050919050565b61153881611524565b82525050565b5f6020820190506115515f83018461152f565b92915050565b5f60408201905061156a5f83018561152f565b611577602083018461152f565b9392505050565b5f805f60608486031215611595576115946113e0565b5b5f6115a28682870161142a565b93505060206115b38682870161142a565b92505060406115c4868287016114bd565b9150509250925092565b5f805f606084860312156115e5576115e46113e0565b5b5f6115f28682870161142a565b93505060206116038682870161142a565b92505060406116148682870161142a565b9150509250925092565b5f6060820190506116315f8301866113b8565b61163e60208301856113b8565b61164b60408301846114fc565b949350505050565b5f82825260208201905092915050565b7f42616e6b20686173206e6f74206661696c6564000000000000000000000000005f82015250565b5f611697601383611653565b91506116a282611663565b602082019050919050565b5f6020820190508181035f8301526116c48161168b565b9050919050565b7f4e6f20696e737572656420616d6f756e7420746f20636c61696d0000000000005f82015250565b5f6116ff601a83611653565b915061170a826116cb565b602082019050919050565b5f6020820190508181035f83015261172c816116f3565b9050919050565b5f6040820190506117465f8301856114fc565b61175360208301846113b8565b9392505050565b61176381611524565b811461176d575f80fd5b50565b5f8151905061177e8161175a565b92915050565b5f60208284031215611799576117986113e0565b5b5f6117a684828501611770565b91505092915050565b7f4f6e6c7920726567756c61746f722063616e20706572666f726d2074686973205f8201527f616374696f6e0000000000000000000000000000000000000000000000000000602082015250565b5f611809602683611653565b9150611814826117af565b604082019050919050565b5f6020820190508181035f830152611836816117fd565b9050919050565b7f4e6f74206120726567756c61746f7200000000000000000000000000000000005f82015250565b5f611871600f83611653565b915061187c8261183d565b602082019050919050565b5f6020820190508181035f83015261189e81611865565b9050919050565b7f4e487b71000000000000000000000000000000000000000000000000000000005f52603260045260245ffd5b7f4e487b71000000000000000000000000000000000000000000000000000000005f52601160045260245ffd5b5f611909826113af565b9150611914836113af565b925082820390508181111561192c5761192b6118d2565b5b92915050565b7f4e487b71000000000000000000000000000000000000000000000000000000005f52603160045260245ffd5b5f611969826113af565b91507fffffffffffffffffffffffffffffffffffffffffffffffffffffffffffffffff820361199b5761199a6118d2565b5b600182019050919050565b7f42616e6b206973206e6f742072656769737465726564000000000000000000005f82015250565b5f6119da601683611653565b91506119e5826119a6565b602082019050919050565b5f6020820190508181035f830152611a07816119ce565b9050919050565b7f42616e6b20686173206661696c656400000000000000000000000000000000005f82015250565b5f611a42600f83611653565b9150611a4d82611a0e565b602082019050919050565b5f6020820190508181035f830152611a6f81611a36565b9050919050565b5f604082019050611a895f8301856114fc565b611a9660208301846114fc565b9392505050565b5f81519050611aab816114a7565b92915050565b5f60208284031215611ac657611ac56113e0565b5b5f611ad384828501611a9d565b91505092915050565b5f611ae6826113af565b9150611af1836113af565b9250828201905080821115611b0957611b086118d2565b5b92915050565b5f606082019050611b225f8301866114fc565b611b2f60208301856114fc565b611b3c60408301846113b8565b949350505050565b7f496e76616c6964206164647265737300000000000000000000000000000000005f82015250565b5f611b78600f83611653565b9150611b8382611b44565b602082019050919050565b5f6020820190508181035f830152611ba581611b6c565b9050919050565b7f4164647265737320697320616c7265616479206120726567756c61746f7200005f82015250565b5f611be0601e83611653565b9150611beb82611bac565b602082019050919050565b5f6020820190508181035f830152611c0d81611bd4565b905091905056fea26469706673582212207df8606181e5eaf45c33dc15ee1615dc6149835a5478c70bbffc5936b7ec11b164736f6c63430008140033",
  "immutableReferences": {},
  "source": "// File: @openzeppelin/contracts/token/ERC20/IERC20.sol\n\n\n// OpenZeppelin Contracts (last updated v5.0.0) (token/ERC20/IERC20.sol)\n\npragma solidity ^0.8.20;\n\n/**\n * @dev Interface of the ERC20 standard as defined in the EIP.\n */\ninterface IERC20 {\n    /**\n     * @dev Emitted when `value` tokens are moved from one account (`from`) to\n     * another (`to`).\n     *\n     * Note that `value` may be zero.\n     */\n    event Transfer(address indexed from, address indexed to, uint256 value);\n\n    /**\n     * @dev Emitted when the allowance of a `spender` for an `owner` is set by\n     * a call to {approve}. `value` is the new allowance.\n     */\n    event Approval(address indexed owner, address indexed spender, uint256 value);\n\n    /**\n     * @dev Returns the value of tokens in existence.\n     */\n    function totalSupply() external view returns (uint256);\n\n    /**\n     * @dev Returns the value of tokens owned by `account`.\n     */\n    function balanceOf(address account) external view returns (uint256);\n\n    /**\n     * @dev Moves a `value` amount of tokens from the caller's account to `to`.\n     *\n     * Returns a boolean value indicating whether the operation succeeded.\n     *\n     * Emits a {Transfer} event.\n     */\n    function transfer(address to, uint256 value) external returns (bool);\n\n    /**\n     * @dev Returns the remaining number of tokens that `spender` will be\n     * allowed to spend on behalf of `owner` through {transferFrom}. This is\n     * zero by default.\n     *\n     * This value changes when {approve} or {transferFrom} are called.\n     */\n    function allowance(address owner, address spender) external view returns (uint256);\n\n    /**\n     * @dev Sets a `value` amount of tokens as the allowance of `spender` over the\n     * caller's tokens.\n     *\n     * Returns a boolean value indicating whether the operation succeeded.\n     *\n     * IMPORTANT: Beware that changing an allowance with this method brings the risk\n     * that someone may use both the old and the new allowance by unfortunate\n     * transaction ordering. One possible solution to mitigate this race\n     * condition is to first reduce the spender's allowance to 0 and set the\n     * desired value afterwards:\n     * https://github.com/ethereum/EIPs/issues/20#issuecomment-263524729\n     *\n     * Emits an {Approval} event.\n     */\n    function approve(address spender, uint256 value) external returns (bool);\n\n    /**\n     * @dev Moves a `value` amount of tokens from `from` to `to` using the\n     * allowance mechanism. `value` is then deducted from the caller's\n     * allowance.\n     *\n     * Returns a boolean value indicating whether the operation succeeded.\n     *\n     * Emits a {Transfer} event.\n     */\n    function transferFrom(address from, address to, uint256 value) external returns (bool);\n}\n\n// File: OnChainFDIC.sol\n\n\npragma solidity ^0.8.20;\n\n\ncontract ERC20FDIC {\n    struct Bank {\n        bool isRegistered;\n        bool isFailed;\n        mapping(address => uint256) totalDeposits;\n    }\n\n    struct Depositor {\n        uint256 amount;\n        uint256 insuredAmount;\n        address token;\n    }\n\n    address[] public regulators; // an array to store multiple regulators\n    mapping(address => bool) public isRegulator; // mapping to check if an address is a regulator\n    mapping(address => Bank) public banks;\n    mapping(address => mapping(address => mapping(address => Depositor))) public deposits; // depositor => bank => Depositor\n\n    event BankRegistered(address indexed bank);\n    event DepositMade(address indexed depositor, address indexed bank, uint256 amount);\n    event BankFailed(address indexed bank);\n    event CompensationPaid(address indexed depositor, address indexed bank, uint256 amount);\n    event RegulatorAdded(address indexed regulator);\n    event RegulatorRemoved(address indexed regulator);\n\n    modifier onlyRegulator() {\n        require(isRegulator[msg.sender], \"Only regulator can perform this action\");\n        _;\n    }\n\n    constructor() {\n        isRegulator[msg.sender] = true;\n        regulators.push(msg.sender);\n    }\n\n    // Function to add a new regulator\n    function addRegulator(address _newRegulator) external onlyRegulator {\n        require(_newRegulator != address(0), \"Invalid address\");\n        require(!isRegulator[_newRegulator], \"Address is already a regulator\");\n        \n        isRegulator[_newRegulator] = true;\n        regulators.push(_newRegulator);\n        \n        emit RegulatorAdded(_newRegulator);\n    }\n\n    // Function to remove a regulator\n    function removeRegulator(address _regulator) external onlyRegulator {\n        require(isRegulator[_regulator], \"Not a regulator\");\n        \n        isRegulator[_regulator] = false;\n        \n        // Optionally, you can remove from the regulators array\n        for (uint256 i = 0; i < regulators.length; i++) {\n            if (regulators[i] == _regulator) {\n                regulators[i] = regulators[regulators.length - 1]; // Move the last element to the removed spot\n                regulators.pop(); // Remove the last element\n                break; // Exit the loop once removed\n            }\n        }\n        \n        emit RegulatorRemoved(_regulator);\n    }\n\n\n\n    // Function for regulator to register banks\n    function registerBank(address _bank) external onlyRegulator {\n        banks[_bank].isRegistered = true;\n        emit BankRegistered(_bank);\n    }\n\n    // Depositors deposit funds into banks\n    function deposit(address _bank, address _token, uint256 _amount) external {\n        require(banks[_bank].isRegistered, \"Bank is not registered\");\n        require(!banks[_bank].isFailed, \"Bank has failed\");\n\n        // Transfer the ERC20 tokens from the sender to this contract\n        uint256 currentAllowance = IERC20(_token).allowance(msg.sender, address(this));\n        uint256 newAllowance = currentAllowance + _amount;\n        IERC20(_token).approve(address(this), newAllowance);\n\n        IERC20(_token).transferFrom(msg.sender, address(this), _amount);\n\n        deposits[msg.sender][_bank][_token].amount += _amount;\n        banks[_bank].totalDeposits[_token] += _amount;\n\n        emit DepositMade(msg.sender, _bank, _amount);\n    }\n\n    // Regulator marks bank as failed\n    function failBank(address _bank) external onlyRegulator {\n        require(banks[_bank].isRegistered, \"Bank is not registered\");\n        banks[_bank].isFailed = true;\n        emit BankFailed(_bank);\n    }\n\n    // Depositors claim insurance after bank failure\n    function claimInsurance(address _bank, address _token) external {\n        require(banks[_bank].isFailed, \"Bank has not failed\");\n        uint256 compensation = deposits[msg.sender][_bank][_token].insuredAmount;\n        require(compensation > 0, \"No insured amount to claim\");\n\n        // Reset depositor's insured amount to prevent re-entrancy\n        deposits[msg.sender][_bank][_token].insuredAmount = 0;\n\n        // Pay compensation in ERC-20 tokens\n        IERC20(_token).transfer( msg.sender, compensation);\n        emit CompensationPaid(msg.sender, _bank, compensation);\n    }\n\n    // Function to fund the insurance pool (could be from bank premiums)\n    receive() external payable {}\n\n    // Function to check the contract balance (insurance pool)\n    function getInsurancePoolBalance() external view returns (uint256) {\n        return address(this).balance;\n    }\n}",
  "sourcePath": "/Users/aditpatel/Desktop/temp/fdic-dapp/contracts/ERC20DFDIC.sol",
  "compiler": {
    "name": "solc",
    "version": "0.8.20+commit.a1b79de6.Emscripten.clang"
  },
  "schemaVersion": "3.4.16",
  "updatedAt": "2024-09-23T20:44:31.068Z",
  "networkType": "ethereum",
  "devdoc": {
    "kind": "dev",
    "methods": {},
    "version": 1
  },
  "userdoc": {
    "kind": "user",
    "methods": {},
    "version": 1
  }
}