{
  "contractName": "OnChainFDIC",
  "abi": [
    {
      "inputs": [],
      "stateMutability": "nonpayable",
      "type": "constructor"
    },
    {
      "anonymous": false,
      "inputs": [
        {
          "indexed": true,
          "internalType": "address",
          "name": "bank",
          "type": "address"
        }
      ],
      "name": "BankFailed",
      "type": "event"
    },
    {
      "anonymous": false,
      "inputs": [
        {
          "indexed": true,
          "internalType": "address",
          "name": "bank",
          "type": "address"
        }
      ],
      "name": "BankRegistered",
      "type": "event"
    },
    {
      "anonymous": false,
      "inputs": [
        {
          "indexed": true,
          "internalType": "address",
          "name": "depositor",
          "type": "address"
        },
        {
          "indexed": true,
          "internalType": "address",
          "name": "bank",
          "type": "address"
        },
        {
          "indexed": false,
          "internalType": "uint256",
          "name": "amount",
          "type": "uint256"
        }
      ],
      "name": "CompensationPaid",
      "type": "event"
    },
    {
      "anonymous": false,
      "inputs": [
        {
          "indexed": true,
          "internalType": "address",
          "name": "depositor",
          "type": "address"
        },
        {
          "indexed": true,
          "internalType": "address",
          "name": "bank",
          "type": "address"
        },
        {
          "indexed": false,
          "internalType": "uint256",
          "name": "amount",
          "type": "uint256"
        }
      ],
      "name": "DepositMade",
      "type": "event"
    },
    {
      "inputs": [
        {
          "internalType": "address",
          "name": "",
          "type": "address"
        }
      ],
      "name": "banks",
      "outputs": [
        {
          "internalType": "bool",
          "name": "isRegistered",
          "type": "bool"
        },
        {
          "internalType": "bool",
          "name": "isFailed",
          "type": "bool"
        },
        {
          "internalType": "uint256",
          "name": "totalDeposits",
          "type": "uint256"
        }
      ],
      "stateMutability": "view",
      "type": "function"
    },
    {
      "inputs": [
        {
          "internalType": "address",
          "name": "",
          "type": "address"
        },
        {
          "internalType": "address",
          "name": "",
          "type": "address"
        }
      ],
      "name": "deposits",
      "outputs": [
        {
          "internalType": "uint256",
          "name": "amount",
          "type": "uint256"
        },
        {
          "internalType": "uint256",
          "name": "insuredAmount",
          "type": "uint256"
        }
      ],
      "stateMutability": "view",
      "type": "function"
    },
    {
      "inputs": [],
      "name": "insuranceLimit",
      "outputs": [
        {
          "internalType": "uint256",
          "name": "",
          "type": "uint256"
        }
      ],
      "stateMutability": "view",
      "type": "function"
    },
    {
      "inputs": [],
      "name": "regulator",
      "outputs": [
        {
          "internalType": "address",
          "name": "",
          "type": "address"
        }
      ],
      "stateMutability": "view",
      "type": "function"
    },
    {
      "stateMutability": "payable",
      "type": "receive"
    },
    {
      "inputs": [
        {
          "internalType": "address",
          "name": "_bank",
          "type": "address"
        }
      ],
      "name": "registerBank",
      "outputs": [],
      "stateMutability": "nonpayable",
      "type": "function"
    },
    {
      "inputs": [
        {
          "internalType": "address",
          "name": "_bank",
          "type": "address"
        }
      ],
      "name": "deposit",
      "outputs": [],
      "stateMutability": "payable",
      "type": "function"
    },
    {
      "inputs": [
        {
          "internalType": "address",
          "name": "_bank",
          "type": "address"
        }
      ],
      "name": "failBank",
      "outputs": [],
      "stateMutability": "nonpayable",
      "type": "function"
    },
    {
      "inputs": [
        {
          "internalType": "address",
          "name": "_bank",
          "type": "address"
        }
      ],
      "name": "claimInsurance",
      "outputs": [],
      "stateMutability": "nonpayable",
      "type": "function"
    },
    {
      "inputs": [],
      "name": "getInsurancePoolBalance",
      "outputs": [
        {
          "internalType": "uint256",
          "name": "",
          "type": "uint256"
        }
      ],
      "stateMutability": "view",
      "type": "function"
    }
  ],
  "bytecode": "0x60806040526934f086f3b33b6840000060015534801561001d575f80fd5b50335f806101000a81548173ffffffffffffffffffffffffffffffffffffffff021916908373ffffffffffffffffffffffffffffffffffffffff1602179055506110748061006a5f395ff3fe608060405260043610610089575f3560e01c80638f601f66116100585780638f601f661461014c578063c367229914610189578063dd8fee14146101b1578063e4e5a3d1146101db578063f340fa011461020557610090565b80631239c2711461009457806316e572c0146100bc5780635e01426f146100e657806380c3b8c21461010e57610090565b3661009057005b5f80fd5b34801561009f575f80fd5b506100ba60048036038101906100b59190610c68565b610221565b005b3480156100c7575f80fd5b506100d061049b565b6040516100dd9190610cab565b60405180910390f35b3480156100f1575f80fd5b5061010c60048036038101906101079190610c68565b6104a2565b005b348015610119575f80fd5b50610134600480360381019061012f9190610c68565b610658565b60405161014393929190610cde565b60405180910390f35b348015610157575f80fd5b50610172600480360381019061016d9190610d13565b610696565b604051610180929190610d51565b60405180910390f35b348015610194575f80fd5b506101af60048036038101906101aa9190610c68565b6106c1565b005b3480156101bc575f80fd5b506101c56107eb565b6040516101d29190610d87565b60405180910390f35b3480156101e6575f80fd5b506101ef61080e565b6040516101fc9190610cab565b60405180910390f35b61021f600480360381019061021a9190610c68565b610814565b005b60025f8273ffffffffffffffffffffffffffffffffffffffff1673ffffffffffffffffffffffffffffffffffffffff1681526020019081526020015f205f0160019054906101000a900460ff166102ad576040517f08c379a00000000000000000000000000000000000000000000000000000000081526004016102a490610dfa565b60405180910390fd5b5f60035f3373ffffffffffffffffffffffffffffffffffffffff1673ffffffffffffffffffffffffffffffffffffffff1681526020019081526020015f205f8373ffffffffffffffffffffffffffffffffffffffff1673ffffffffffffffffffffffffffffffffffffffff1681526020019081526020015f206001015490505f811161036e576040517f08c379a000000000000000000000000000000000000000000000000000000000815260040161036590610e62565b60405180910390fd5b5f60035f3373ffffffffffffffffffffffffffffffffffffffff1673ffffffffffffffffffffffffffffffffffffffff1681526020019081526020015f205f8473ffffffffffffffffffffffffffffffffffffffff1673ffffffffffffffffffffffffffffffffffffffff1681526020019081526020015f20600101819055503373ffffffffffffffffffffffffffffffffffffffff166108fc8290811502906040515f60405180830381858888f19350505050158015610431573d5f803e3d5ffd5b508173ffffffffffffffffffffffffffffffffffffffff163373ffffffffffffffffffffffffffffffffffffffff167f78e04c81b764ae74a7ba0d7de58b2f955845aab3995a95237d46404b2526a54e8360405161048f9190610cab565b60405180910390a35050565b5f47905090565b5f8054906101000a900473ffffffffffffffffffffffffffffffffffffffff1673ffffffffffffffffffffffffffffffffffffffff163373ffffffffffffffffffffffffffffffffffffffff161461052f576040517f08c379a000000000000000000000000000000000000000000000000000000000815260040161052690610ef0565b60405180910390fd5b60025f8273ffffffffffffffffffffffffffffffffffffffff1673ffffffffffffffffffffffffffffffffffffffff1681526020019081526020015f205f015f9054906101000a900460ff166105ba576040517f08c379a00000000000000000000000000000000000000000000000000000000081526004016105b190610f58565b60405180910390fd5b600160025f8373ffffffffffffffffffffffffffffffffffffffff1673ffffffffffffffffffffffffffffffffffffffff1681526020019081526020015f205f0160016101000a81548160ff0219169083151502179055508073ffffffffffffffffffffffffffffffffffffffff167f7f68dd0ffc239a74f0906890f089856577db0e414437571ee5da78441f7222fe60405160405180910390a250565b6002602052805f5260405f205f91509050805f015f9054906101000a900460ff1690805f0160019054906101000a900460ff16908060010154905083565b6003602052815f5260405f20602052805f5260405f205f9150915050805f0154908060010154905082565b5f8054906101000a900473ffffffffffffffffffffffffffffffffffffffff1673ffffffffffffffffffffffffffffffffffffffff163373ffffffffffffffffffffffffffffffffffffffff161461074e576040517f08c379a000000000000000000000000000000000000000000000000000000000815260040161074590610ef0565b60405180910390fd5b600160025f8373ffffffffffffffffffffffffffffffffffffffff1673ffffffffffffffffffffffffffffffffffffffff1681526020019081526020015f205f015f6101000a81548160ff0219169083151502179055508073ffffffffffffffffffffffffffffffffffffffff167f4a6deab8cf14a40f9388fd118ec277f31a67b616473839fa23330a3ef9e1dc0560405160405180910390a250565b5f8054906101000a900473ffffffffffffffffffffffffffffffffffffffff1681565b60015481565b60025f8273ffffffffffffffffffffffffffffffffffffffff1673ffffffffffffffffffffffffffffffffffffffff1681526020019081526020015f205f015f9054906101000a900460ff1661089f576040517f08c379a000000000000000000000000000000000000000000000000000000000815260040161089690610f58565b60405180910390fd5b60025f8273ffffffffffffffffffffffffffffffffffffffff1673ffffffffffffffffffffffffffffffffffffffff1681526020019081526020015f205f0160019054906101000a900460ff161561092c576040517f08c379a000000000000000000000000000000000000000000000000000000000815260040161092390610fc0565b60405180910390fd5b3460035f3373ffffffffffffffffffffffffffffffffffffffff1673ffffffffffffffffffffffffffffffffffffffff1681526020019081526020015f205f8373ffffffffffffffffffffffffffffffffffffffff1673ffffffffffffffffffffffffffffffffffffffff1681526020019081526020015f205f015f8282546109b5919061100b565b925050819055503460025f8373ffffffffffffffffffffffffffffffffffffffff1673ffffffffffffffffffffffffffffffffffffffff1681526020019081526020015f206001015f828254610a0b919061100b565b925050819055505f60035f3373ffffffffffffffffffffffffffffffffffffffff1673ffffffffffffffffffffffffffffffffffffffff1681526020019081526020015f205f8373ffffffffffffffffffffffffffffffffffffffff1673ffffffffffffffffffffffffffffffffffffffff1681526020019081526020015f205f015490506001548111610b1e578060035f3373ffffffffffffffffffffffffffffffffffffffff1673ffffffffffffffffffffffffffffffffffffffff1681526020019081526020015f205f8473ffffffffffffffffffffffffffffffffffffffff1673ffffffffffffffffffffffffffffffffffffffff1681526020019081526020015f2060010181905550610ba1565b60015460035f3373ffffffffffffffffffffffffffffffffffffffff1673ffffffffffffffffffffffffffffffffffffffff1681526020019081526020015f205f8473ffffffffffffffffffffffffffffffffffffffff1673ffffffffffffffffffffffffffffffffffffffff1681526020019081526020015f20600101819055505b8173ffffffffffffffffffffffffffffffffffffffff163373ffffffffffffffffffffffffffffffffffffffff167f1de3ece35391f6bba650736f2d5d3f12e2cfc54538a340cc5d762d34ca449de734604051610bfe9190610cab565b60405180910390a35050565b5f80fd5b5f73ffffffffffffffffffffffffffffffffffffffff82169050919050565b5f610c3782610c0e565b9050919050565b610c4781610c2d565b8114610c51575f80fd5b50565b5f81359050610c6281610c3e565b92915050565b5f60208284031215610c7d57610c7c610c0a565b5b5f610c8a84828501610c54565b91505092915050565b5f819050919050565b610ca581610c93565b82525050565b5f602082019050610cbe5f830184610c9c565b92915050565b5f8115159050919050565b610cd881610cc4565b82525050565b5f606082019050610cf15f830186610ccf565b610cfe6020830185610ccf565b610d0b6040830184610c9c565b949350505050565b5f8060408385031215610d2957610d28610c0a565b5b5f610d3685828601610c54565b9250506020610d4785828601610c54565b9150509250929050565b5f604082019050610d645f830185610c9c565b610d716020830184610c9c565b9392505050565b610d8181610c2d565b82525050565b5f602082019050610d9a5f830184610d78565b92915050565b5f82825260208201905092915050565b7f42616e6b20686173206e6f74206661696c6564000000000000000000000000005f82015250565b5f610de4601383610da0565b9150610def82610db0565b602082019050919050565b5f6020820190508181035f830152610e1181610dd8565b9050919050565b7f4e6f20696e737572656420616d6f756e7420746f20636c61696d0000000000005f82015250565b5f610e4c601a83610da0565b9150610e5782610e18565b602082019050919050565b5f6020820190508181035f830152610e7981610e40565b9050919050565b7f4f6e6c7920726567756c61746f722063616e20706572666f726d2074686973205f8201527f616374696f6e0000000000000000000000000000000000000000000000000000602082015250565b5f610eda602683610da0565b9150610ee582610e80565b604082019050919050565b5f6020820190508181035f830152610f0781610ece565b9050919050565b7f42616e6b206973206e6f742072656769737465726564000000000000000000005f82015250565b5f610f42601683610da0565b9150610f4d82610f0e565b602082019050919050565b5f6020820190508181035f830152610f6f81610f36565b9050919050565b7f42616e6b20686173206661696c656400000000000000000000000000000000005f82015250565b5f610faa600f83610da0565b9150610fb582610f76565b602082019050919050565b5f6020820190508181035f830152610fd781610f9e565b9050919050565b7f4e487b71000000000000000000000000000000000000000000000000000000005f52601160045260245ffd5b5f61101582610c93565b915061102083610c93565b925082820190508082111561103857611037610fde565b5b9291505056fea26469706673582212202143e18c1558985435f1a79003b07caa5f8b84c2258dc7cddb722541839d868864736f6c63430008140033",
  "immutableReferences": {},
  "source": "// SPDX-License-Identifier: MIT\npragma solidity ^0.8.0;\n\ncontract OnChainFDIC {\n    struct Bank {\n        bool isRegistered;\n        bool isFailed;\n        uint256 totalDeposits;\n    }\n\n    struct Depositor {\n        uint256 amount;\n        uint256 insuredAmount;\n    }\n\n    address public regulator;\n    uint256 public insuranceLimit = 250000 ether; // Insurance limit\n    mapping(address => Bank) public banks;\n    mapping(address => mapping(address => Depositor)) public deposits; // depositor => bank => Depositor\n\n    event BankRegistered(address indexed bank);\n    event DepositMade(address indexed depositor, address indexed bank, uint256 amount);\n    event BankFailed(address indexed bank);\n    event CompensationPaid(address indexed depositor, address indexed bank, uint256 amount);\n\n    modifier onlyRegulator() {\n        require(msg.sender == regulator, \"Only regulator can perform this action\");\n        _;\n    }\n\n    constructor() {\n        regulator = msg.sender;\n    }\n\n    // Function for regulator to register banks\n    function registerBank(address _bank) external onlyRegulator {\n        banks[_bank].isRegistered = true;\n        emit BankRegistered(_bank);\n    }\n\n    // Depositors deposit funds into banks\n    function deposit(address _bank) external payable {\n        require(banks[_bank].isRegistered, \"Bank is not registered\");\n        require(!banks[_bank].isFailed, \"Bank has failed\");\n\n        deposits[msg.sender][_bank].amount += msg.value;\n        banks[_bank].totalDeposits += msg.value;\n\n        // Calculate insured amount (up to insurance limit)\n        uint256 totalDeposited = deposits[msg.sender][_bank].amount;\n        if (totalDeposited <= insuranceLimit) {\n            deposits[msg.sender][_bank].insuredAmount = totalDeposited;\n        } else {\n            deposits[msg.sender][_bank].insuredAmount = insuranceLimit;\n        }\n\n        emit DepositMade(msg.sender, _bank, msg.value);\n    }\n\n    // Regulator marks bank as failed\n    function failBank(address _bank) external onlyRegulator {\n        require(banks[_bank].isRegistered, \"Bank is not registered\");\n        banks[_bank].isFailed = true;\n        emit BankFailed(_bank);\n    }\n\n    // Depositors claim insurance after bank failure\n    function claimInsurance(address _bank) external {\n        require(banks[_bank].isFailed, \"Bank has not failed\");\n        uint256 compensation = deposits[msg.sender][_bank].insuredAmount;\n        require(compensation > 0, \"No insured amount to claim\");\n\n        // Reset depositor's insured amount to prevent re-entrancy\n        deposits[msg.sender][_bank].insuredAmount = 0;\n\n        // Pay compensation\n        payable(msg.sender).transfer(compensation);\n        emit CompensationPaid(msg.sender, _bank, compensation);\n    }\n\n    // Function to fund the insurance pool (could be from bank premiums)\n    receive() external payable {}\n\n    // Function to check the contract balance (insurance pool)\n    function getInsurancePoolBalance() external view returns (uint256) {\n        return address(this).balance;\n    }\n}",
  "sourcePath": "/Users/aditpatel/Desktop/temp/fdic-dapp/contracts/OnChainFDIC.sol",
  "compiler": {
    "name": "solc",
    "version": "0.8.20+commit.a1b79de6.Emscripten.clang"
  },
  "schemaVersion": "3.4.16",
  "updatedAt": "2024-09-23T18:15:45.022Z",
  "devdoc": {
    "kind": "dev",
    "methods": {},
    "version": 1
  },
  "userdoc": {
    "kind": "user",
    "methods": {},
    "version": 1
  }
}