{
  "contractName": "OnChainFDICERC20",
  "abi": [
    {
      "inputs": [],
      "stateMutability": "nonpayable",
      "type": "constructor"
    },
    {
      "anonymous": false,
      "inputs": [
        {
          "indexed": true,
          "internalType": "address",
          "name": "bank",
          "type": "address"
        }
      ],
      "name": "BankFailed",
      "type": "event"
    },
    {
      "anonymous": false,
      "inputs": [
        {
          "indexed": true,
          "internalType": "address",
          "name": "bank",
          "type": "address"
        }
      ],
      "name": "BankRegistered",
      "type": "event"
    },
    {
      "anonymous": false,
      "inputs": [
        {
          "indexed": true,
          "internalType": "address",
          "name": "depositor",
          "type": "address"
        },
        {
          "indexed": true,
          "internalType": "address",
          "name": "bank",
          "type": "address"
        },
        {
          "indexed": false,
          "internalType": "uint256",
          "name": "amount",
          "type": "uint256"
        }
      ],
      "name": "CompensationPaid",
      "type": "event"
    },
    {
      "anonymous": false,
      "inputs": [
        {
          "indexed": true,
          "internalType": "address",
          "name": "depositor",
          "type": "address"
        },
        {
          "indexed": true,
          "internalType": "address",
          "name": "bank",
          "type": "address"
        },
        {
          "indexed": false,
          "internalType": "uint256",
          "name": "amount",
          "type": "uint256"
        }
      ],
      "name": "DepositMade",
      "type": "event"
    },
    {
      "inputs": [
        {
          "internalType": "address",
          "name": "",
          "type": "address"
        }
      ],
      "name": "banks",
      "outputs": [
        {
          "internalType": "bool",
          "name": "isRegistered",
          "type": "bool"
        },
        {
          "internalType": "bool",
          "name": "isFailed",
          "type": "bool"
        }
      ],
      "stateMutability": "view",
      "type": "function"
    },
    {
      "inputs": [
        {
          "internalType": "address",
          "name": "",
          "type": "address"
        },
        {
          "internalType": "address",
          "name": "",
          "type": "address"
        },
        {
          "internalType": "address",
          "name": "",
          "type": "address"
        }
      ],
      "name": "deposits",
      "outputs": [
        {
          "internalType": "uint256",
          "name": "amount",
          "type": "uint256"
        },
        {
          "internalType": "uint256",
          "name": "insuredAmount",
          "type": "uint256"
        },
        {
          "internalType": "address",
          "name": "token",
          "type": "address"
        }
      ],
      "stateMutability": "view",
      "type": "function"
    },
    {
      "inputs": [],
      "name": "regulator",
      "outputs": [
        {
          "internalType": "address",
          "name": "",
          "type": "address"
        }
      ],
      "stateMutability": "view",
      "type": "function"
    },
    {
      "stateMutability": "payable",
      "type": "receive"
    },
    {
      "inputs": [
        {
          "internalType": "address",
          "name": "_bank",
          "type": "address"
        }
      ],
      "name": "registerBank",
      "outputs": [],
      "stateMutability": "nonpayable",
      "type": "function"
    },
    {
      "inputs": [
        {
          "internalType": "address",
          "name": "_bank",
          "type": "address"
        },
        {
          "internalType": "address",
          "name": "_token",
          "type": "address"
        },
        {
          "internalType": "uint256",
          "name": "_amount",
          "type": "uint256"
        }
      ],
      "name": "deposit",
      "outputs": [],
      "stateMutability": "nonpayable",
      "type": "function"
    },
    {
      "inputs": [
        {
          "internalType": "address",
          "name": "_bank",
          "type": "address"
        }
      ],
      "name": "failBank",
      "outputs": [],
      "stateMutability": "nonpayable",
      "type": "function"
    },
    {
      "inputs": [
        {
          "internalType": "address",
          "name": "_bank",
          "type": "address"
        },
        {
          "internalType": "address",
          "name": "_token",
          "type": "address"
        }
      ],
      "name": "claimInsurance",
      "outputs": [],
      "stateMutability": "nonpayable",
      "type": "function"
    },
    {
      "inputs": [],
      "name": "getInsurancePoolBalance",
      "outputs": [
        {
          "internalType": "uint256",
          "name": "",
          "type": "uint256"
        }
      ],
      "stateMutability": "view",
      "type": "function"
    }
  ],
  "bytecode": "0x608060405234801561000f575f80fd5b50335f806101000a81548173ffffffffffffffffffffffffffffffffffffffff021916908373ffffffffffffffffffffffffffffffffffffffff1602179055506114968061005c5f395ff3fe60806040526004361061007e575f3560e01c80638340f5491161004d5780638340f54914610140578063c367229914610168578063dd8fee1414610190578063ee2578ab146101ba57610085565b806316e572c01461008957806330907baa146100b35780635e01426f146100db57806380c3b8c21461010357610085565b3661008557005b5f80fd5b348015610094575f80fd5b5061009d6101f8565b6040516100aa9190610dfb565b60405180910390f35b3480156100be575f80fd5b506100d960048036038101906100d49190610e72565b6101ff565b005b3480156100e6575f80fd5b5061010160048036038101906100fc9190610eb0565b610528565b005b34801561010e575f80fd5b5061012960048036038101906101249190610eb0565b6106dd565b604051610137929190610ef5565b60405180910390f35b34801561014b575f80fd5b5061016660048036038101906101619190610f46565b610715565b005b348015610173575f80fd5b5061018e60048036038101906101899190610eb0565b610c3c565b005b34801561019b575f80fd5b506101a4610d65565b6040516101b19190610fa5565b60405180910390f35b3480156101c5575f80fd5b506101e060048036038101906101db9190610fbe565b610d88565b6040516101ef9392919061100e565b60405180910390f35b5f47905090565b60015f8373ffffffffffffffffffffffffffffffffffffffff1673ffffffffffffffffffffffffffffffffffffffff1681526020019081526020015f205f0160019054906101000a900460ff1661028b576040517f08c379a00000000000000000000000000000000000000000000000000000000081526004016102829061109d565b60405180910390fd5b5f60025f3373ffffffffffffffffffffffffffffffffffffffff1673ffffffffffffffffffffffffffffffffffffffff1681526020019081526020015f205f8473ffffffffffffffffffffffffffffffffffffffff1673ffffffffffffffffffffffffffffffffffffffff1681526020019081526020015f205f8373ffffffffffffffffffffffffffffffffffffffff1673ffffffffffffffffffffffffffffffffffffffff1681526020019081526020015f206001015490505f8111610387576040517f08c379a000000000000000000000000000000000000000000000000000000000815260040161037e90611105565b60405180910390fd5b5f60025f3373ffffffffffffffffffffffffffffffffffffffff1673ffffffffffffffffffffffffffffffffffffffff1681526020019081526020015f205f8573ffffffffffffffffffffffffffffffffffffffff1673ffffffffffffffffffffffffffffffffffffffff1681526020019081526020015f205f8473ffffffffffffffffffffffffffffffffffffffff1673ffffffffffffffffffffffffffffffffffffffff1681526020019081526020015f20600101819055508173ffffffffffffffffffffffffffffffffffffffff1663a9059cbb33836040518363ffffffff1660e01b815260040161047d929190611123565b6020604051808303815f875af1158015610499573d5f803e3d5ffd5b505050506040513d601f19601f820116820180604052508101906104bd9190611174565b508273ffffffffffffffffffffffffffffffffffffffff163373ffffffffffffffffffffffffffffffffffffffff167f78e04c81b764ae74a7ba0d7de58b2f955845aab3995a95237d46404b2526a54e8360405161051b9190610dfb565b60405180910390a3505050565b5f8054906101000a900473ffffffffffffffffffffffffffffffffffffffff1673ffffffffffffffffffffffffffffffffffffffff163373ffffffffffffffffffffffffffffffffffffffff16146105b5576040517f08c379a00000000000000000000000000000000000000000000000000000000081526004016105ac9061120f565b60405180910390fd5b60015f8273ffffffffffffffffffffffffffffffffffffffff1673ffffffffffffffffffffffffffffffffffffffff1681526020019081526020015f205f015f9054906101000a900460ff16610640576040517f08c379a000000000000000000000000000000000000000000000000000000000815260040161063790611277565b60405180910390fd5b6001805f8373ffffffffffffffffffffffffffffffffffffffff1673ffffffffffffffffffffffffffffffffffffffff1681526020019081526020015f205f0160016101000a81548160ff0219169083151502179055508073ffffffffffffffffffffffffffffffffffffffff167f7f68dd0ffc239a74f0906890f089856577db0e414437571ee5da78441f7222fe60405160405180910390a250565b6001602052805f5260405f205f91509050805f015f9054906101000a900460ff1690805f0160019054906101000a900460ff16905082565b60015f8473ffffffffffffffffffffffffffffffffffffffff1673ffffffffffffffffffffffffffffffffffffffff1681526020019081526020015f205f015f9054906101000a900460ff166107a0576040517f08c379a000000000000000000000000000000000000000000000000000000000815260040161079790611277565b60405180910390fd5b60015f8473ffffffffffffffffffffffffffffffffffffffff1673ffffffffffffffffffffffffffffffffffffffff1681526020019081526020015f205f0160019054906101000a900460ff161561082d576040517f08c379a0000000000000000000000000000000000000000000000000000000008152600401610824906112df565b60405180910390fd5b5f8273ffffffffffffffffffffffffffffffffffffffff1663dd62ed3e33306040518363ffffffff1660e01b81526004016108699291906112fd565b602060405180830381865afa158015610884573d5f803e3d5ffd5b505050506040513d601f19601f820116820180604052508101906108a89190611338565b9050818110156108ed576040517f08c379a00000000000000000000000000000000000000000000000000000000081526004016108e4906113ad565b60405180910390fd5b5f8373ffffffffffffffffffffffffffffffffffffffff1663dd62ed3e33306040518363ffffffff1660e01b81526004016109299291906112fd565b602060405180830381865afa158015610944573d5f803e3d5ffd5b505050506040513d601f19601f820116820180604052508101906109689190611338565b90505f838261097791906113f8565b90508473ffffffffffffffffffffffffffffffffffffffff1663095ea7b330836040518363ffffffff1660e01b81526004016109b4929190611123565b6020604051808303815f875af11580156109d0573d5f803e3d5ffd5b505050506040513d601f19601f820116820180604052508101906109f49190611174565b508473ffffffffffffffffffffffffffffffffffffffff166323b872dd3330876040518463ffffffff1660e01b8152600401610a329392919061142b565b6020604051808303815f875af1158015610a4e573d5f803e3d5ffd5b505050506040513d601f19601f82011682018060405250810190610a729190611174565b508360025f3373ffffffffffffffffffffffffffffffffffffffff1673ffffffffffffffffffffffffffffffffffffffff1681526020019081526020015f205f8873ffffffffffffffffffffffffffffffffffffffff1673ffffffffffffffffffffffffffffffffffffffff1681526020019081526020015f205f8773ffffffffffffffffffffffffffffffffffffffff1673ffffffffffffffffffffffffffffffffffffffff1681526020019081526020015f205f015f828254610b3791906113f8565b925050819055508360015f8873ffffffffffffffffffffffffffffffffffffffff1673ffffffffffffffffffffffffffffffffffffffff1681526020019081526020015f206001015f8773ffffffffffffffffffffffffffffffffffffffff1673ffffffffffffffffffffffffffffffffffffffff1681526020019081526020015f205f828254610bc891906113f8565b925050819055508573ffffffffffffffffffffffffffffffffffffffff163373ffffffffffffffffffffffffffffffffffffffff167f1de3ece35391f6bba650736f2d5d3f12e2cfc54538a340cc5d762d34ca449de786604051610c2c9190610dfb565b60405180910390a3505050505050565b5f8054906101000a900473ffffffffffffffffffffffffffffffffffffffff1673ffffffffffffffffffffffffffffffffffffffff163373ffffffffffffffffffffffffffffffffffffffff1614610cc9576040517f08c379a0000000000000000000000000000000000000000000000000000000008152600401610cc09061120f565b60405180910390fd5b6001805f8373ffffffffffffffffffffffffffffffffffffffff1673ffffffffffffffffffffffffffffffffffffffff1681526020019081526020015f205f015f6101000a81548160ff0219169083151502179055508073ffffffffffffffffffffffffffffffffffffffff167f4a6deab8cf14a40f9388fd118ec277f31a67b616473839fa23330a3ef9e1dc0560405160405180910390a250565b5f8054906101000a900473ffffffffffffffffffffffffffffffffffffffff1681565b6002602052825f5260405f20602052815f5260405f20602052805f5260405f205f925092505050805f015490806001015490806002015f9054906101000a900473ffffffffffffffffffffffffffffffffffffffff16905083565b5f819050919050565b610df581610de3565b82525050565b5f602082019050610e0e5f830184610dec565b92915050565b5f80fd5b5f73ffffffffffffffffffffffffffffffffffffffff82169050919050565b5f610e4182610e18565b9050919050565b610e5181610e37565b8114610e5b575f80fd5b50565b5f81359050610e6c81610e48565b92915050565b5f8060408385031215610e8857610e87610e14565b5b5f610e9585828601610e5e565b9250506020610ea685828601610e5e565b9150509250929050565b5f60208284031215610ec557610ec4610e14565b5b5f610ed284828501610e5e565b91505092915050565b5f8115159050919050565b610eef81610edb565b82525050565b5f604082019050610f085f830185610ee6565b610f156020830184610ee6565b9392505050565b610f2581610de3565b8114610f2f575f80fd5b50565b5f81359050610f4081610f1c565b92915050565b5f805f60608486031215610f5d57610f5c610e14565b5b5f610f6a86828701610e5e565b9350506020610f7b86828701610e5e565b9250506040610f8c86828701610f32565b9150509250925092565b610f9f81610e37565b82525050565b5f602082019050610fb85f830184610f96565b92915050565b5f805f60608486031215610fd557610fd4610e14565b5b5f610fe286828701610e5e565b9350506020610ff386828701610e5e565b925050604061100486828701610e5e565b9150509250925092565b5f6060820190506110215f830186610dec565b61102e6020830185610dec565b61103b6040830184610f96565b949350505050565b5f82825260208201905092915050565b7f42616e6b20686173206e6f74206661696c6564000000000000000000000000005f82015250565b5f611087601383611043565b915061109282611053565b602082019050919050565b5f6020820190508181035f8301526110b48161107b565b9050919050565b7f4e6f20696e737572656420616d6f756e7420746f20636c61696d0000000000005f82015250565b5f6110ef601a83611043565b91506110fa826110bb565b602082019050919050565b5f6020820190508181035f83015261111c816110e3565b9050919050565b5f6040820190506111365f830185610f96565b6111436020830184610dec565b9392505050565b61115381610edb565b811461115d575f80fd5b50565b5f8151905061116e8161114a565b92915050565b5f6020828403121561118957611188610e14565b5b5f61119684828501611160565b91505092915050565b7f4f6e6c7920726567756c61746f722063616e20706572666f726d2074686973205f8201527f616374696f6e0000000000000000000000000000000000000000000000000000602082015250565b5f6111f9602683611043565b91506112048261119f565b604082019050919050565b5f6020820190508181035f830152611226816111ed565b9050919050565b7f42616e6b206973206e6f742072656769737465726564000000000000000000005f82015250565b5f611261601683611043565b915061126c8261122d565b602082019050919050565b5f6020820190508181035f83015261128e81611255565b9050919050565b7f42616e6b20686173206661696c656400000000000000000000000000000000005f82015250565b5f6112c9600f83611043565b91506112d482611295565b602082019050919050565b5f6020820190508181035f8301526112f6816112bd565b9050919050565b5f6040820190506113105f830185610f96565b61131d6020830184610f96565b9392505050565b5f8151905061133281610f1c565b92915050565b5f6020828403121561134d5761134c610e14565b5b5f61135a84828501611324565b91505092915050565b7f416c6c6f77616e6365206e6f742073756666696369656e7400000000000000005f82015250565b5f611397601883611043565b91506113a282611363565b602082019050919050565b5f6020820190508181035f8301526113c48161138b565b9050919050565b7f4e487b71000000000000000000000000000000000000000000000000000000005f52601160045260245ffd5b5f61140282610de3565b915061140d83610de3565b9250828201905080821115611425576114246113cb565b5b92915050565b5f60608201905061143e5f830186610f96565b61144b6020830185610f96565b6114586040830184610dec565b94935050505056fea2646970667358221220b23f1fc900a78d78a95a1c579e5d87bef07060c36d92b335b6a9f8ca311ed7b064736f6c63430008140033",
  "immutableReferences": {},
  "source": "\n// File: @openzeppelin/contracts/token/ERC20/IERC20.sol\n\n\n// OpenZeppelin Contracts (last updated v5.0.0) (token/ERC20/IERC20.sol)\n\npragma solidity ^0.8.20;\n\n/**\n * @dev Interface of the ERC20 standard as defined in the EIP.\n */\ninterface IERC20 {\n    /**\n     * @dev Emitted when `value` tokens are moved from one account (`from`) to\n     * another (`to`).\n     *\n     * Note that `value` may be zero.\n     */\n    event Transfer(address indexed from, address indexed to, uint256 value);\n\n    /**\n     * @dev Emitted when the allowance of a `spender` for an `owner` is set by\n     * a call to {approve}. `value` is the new allowance.\n     */\n    event Approval(address indexed owner, address indexed spender, uint256 value);\n\n    /**\n     * @dev Returns the value of tokens in existence.\n     */\n    function totalSupply() external view returns (uint256);\n\n    /**\n     * @dev Returns the value of tokens owned by `account`.\n     */\n    function balanceOf(address account) external view returns (uint256);\n\n    /**\n     * @dev Moves a `value` amount of tokens from the caller's account to `to`.\n     *\n     * Returns a boolean value indicating whether the operation succeeded.\n     *\n     * Emits a {Transfer} event.\n     */\n    function transfer(address to, uint256 value) external returns (bool);\n\n    /**\n     * @dev Returns the remaining number of tokens that `spender` will be\n     * allowed to spend on behalf of `owner` through {transferFrom}. This is\n     * zero by default.\n     *\n     * This value changes when {approve} or {transferFrom} are called.\n     */\n    function allowance(address owner, address spender) external view returns (uint256);\n\n    /**\n     * @dev Sets a `value` amount of tokens as the allowance of `spender` over the\n     * caller's tokens.\n     *\n     * Returns a boolean value indicating whether the operation succeeded.\n     *\n     * IMPORTANT: Beware that changing an allowance with this method brings the risk\n     * that someone may use both the old and the new allowance by unfortunate\n     * transaction ordering. One possible solution to mitigate this race\n     * condition is to first reduce the spender's allowance to 0 and set the\n     * desired value afterwards:\n     * https://github.com/ethereum/EIPs/issues/20#issuecomment-263524729\n     *\n     * Emits an {Approval} event.\n     */\n    function approve(address spender, uint256 value) external returns (bool);\n\n    /**\n     * @dev Moves a `value` amount of tokens from `from` to `to` using the\n     * allowance mechanism. `value` is then deducted from the caller's\n     * allowance.\n     *\n     * Returns a boolean value indicating whether the operation succeeded.\n     *\n     * Emits a {Transfer} event.\n     */\n    function transferFrom(address from, address to, uint256 value) external returns (bool);\n}\n\n// File: OnChainFDIC.sol\n\n\npragma solidity ^0.8.0;\n\n\ncontract OnChainFDICERC20 {\n    struct Bank {\n        bool isRegistered;\n        bool isFailed;\n        mapping(address => uint256) totalDeposits;\n    }\n\n    struct Depositor {\n        uint256 amount;\n        uint256 insuredAmount;\n        address token;\n    }\n\n    address public regulator;\n    mapping(address => Bank) public banks;\n    mapping(address => mapping(address => mapping(address => Depositor))) public deposits; // depositor => bank => Depositor\n\n    event BankRegistered(address indexed bank);\n    event DepositMade(address indexed depositor, address indexed bank, uint256 amount);\n    event BankFailed(address indexed bank);\n    event CompensationPaid(address indexed depositor, address indexed bank, uint256 amount);\n\n    modifier onlyRegulator() {\n        require(msg.sender == regulator, \"Only regulator can perform this action\");\n        _;\n    }\n\n    constructor() {\n        regulator = msg.sender;\n    }\n\n    // Function for regulator to register banks\n    function registerBank(address _bank) external onlyRegulator {\n        banks[_bank].isRegistered = true;\n        emit BankRegistered(_bank);\n    }\n\n    // Depositors deposit funds into banks\n    function deposit(address _bank, address _token, uint256 _amount) external {\n        require(banks[_bank].isRegistered, \"Bank is not registered\");\n        require(!banks[_bank].isFailed, \"Bank has failed\");\n\n        // Transfer the ERC20 tokens from the sender to this contract\n        uint256 allowance = IERC20(_token).allowance(msg.sender, address(this));\n        require(allowance >= _amount, \"Allowance not sufficient\");\n\n        uint256 currentAllowance = IERC20(_token).allowance(msg.sender, address(this));\n        uint256 newAllowance = currentAllowance + _amount;\n        IERC20(_token).approve(address(this), newAllowance);\n\n        IERC20(_token).transferFrom(msg.sender, address(this), _amount);\n\n        deposits[msg.sender][_bank][_token].amount += _amount;\n        banks[_bank].totalDeposits[_token] += _amount;\n\n        emit DepositMade(msg.sender, _bank, _amount);\n    }\n\n    // Regulator marks bank as failed\n    function failBank(address _bank) external onlyRegulator {\n        require(banks[_bank].isRegistered, \"Bank is not registered\");\n        banks[_bank].isFailed = true;\n        emit BankFailed(_bank);\n    }\n\n    // Depositors claim insurance after bank failure\n    function claimInsurance(address _bank, address _token) external {\n        require(banks[_bank].isFailed, \"Bank has not failed\");\n        uint256 compensation = deposits[msg.sender][_bank][_token].insuredAmount;\n        require(compensation > 0, \"No insured amount to claim\");\n\n        // Reset depositor's insured amount to prevent re-entrancy\n        deposits[msg.sender][_bank][_token].insuredAmount = 0;\n\n        // Pay compensation in ERC-20 tokens\n        IERC20(_token).transfer( msg.sender, compensation);\n        emit CompensationPaid(msg.sender, _bank, compensation);\n    }\n\n    // Function to fund the insurance pool (could be from bank premiums)\n    receive() external payable {}\n\n    // Function to check the contract balance (insurance pool)\n    function getInsurancePoolBalance() external view returns (uint256) {\n        return address(this).balance;\n    }\n}",
  "sourcePath": "/Users/aditpatel/Desktop/temp/fdic-dapp/contracts/OnChainFDICERC20.sol",
  "compiler": {
    "name": "solc",
    "version": "0.8.20+commit.a1b79de6.Emscripten.clang"
  },
  "schemaVersion": "3.4.16",
  "updatedAt": "2024-09-20T20:31:12.240Z",
  "devdoc": {
    "kind": "dev",
    "methods": {},
    "version": 1
  },
  "userdoc": {
    "kind": "user",
    "methods": {},
    "version": 1
  }
}