{
  "contractName": "OnChainFDIC",
  "abi": [
    {
      "inputs": [],
      "stateMutability": "nonpayable",
      "type": "constructor"
    },
    {
      "anonymous": false,
      "inputs": [
        {
          "indexed": true,
          "internalType": "address",
          "name": "bank",
          "type": "address"
        }
      ],
      "name": "BankFailed",
      "type": "event"
    },
    {
      "anonymous": false,
      "inputs": [
        {
          "indexed": true,
          "internalType": "address",
          "name": "bank",
          "type": "address"
        }
      ],
      "name": "BankRegistered",
      "type": "event"
    },
    {
      "anonymous": false,
      "inputs": [
        {
          "indexed": true,
          "internalType": "address",
          "name": "depositor",
          "type": "address"
        },
        {
          "indexed": true,
          "internalType": "address",
          "name": "bank",
          "type": "address"
        },
        {
          "indexed": false,
          "internalType": "uint256",
          "name": "amount",
          "type": "uint256"
        }
      ],
      "name": "CompensationPaid",
      "type": "event"
    },
    {
      "anonymous": false,
      "inputs": [
        {
          "indexed": true,
          "internalType": "address",
          "name": "depositor",
          "type": "address"
        },
        {
          "indexed": true,
          "internalType": "address",
          "name": "bank",
          "type": "address"
        },
        {
          "indexed": false,
          "internalType": "uint256",
          "name": "amount",
          "type": "uint256"
        }
      ],
      "name": "DepositMade",
      "type": "event"
    },
    {
      "inputs": [
        {
          "internalType": "address",
          "name": "",
          "type": "address"
        }
      ],
      "name": "banks",
      "outputs": [
        {
          "internalType": "bool",
          "name": "isRegistered",
          "type": "bool"
        },
        {
          "internalType": "bool",
          "name": "isFailed",
          "type": "bool"
        },
        {
          "internalType": "uint256",
          "name": "totalDeposits",
          "type": "uint256"
        }
      ],
      "stateMutability": "view",
      "type": "function",
      "constant": true
    },
    {
      "inputs": [
        {
          "internalType": "address",
          "name": "",
          "type": "address"
        },
        {
          "internalType": "address",
          "name": "",
          "type": "address"
        }
      ],
      "name": "deposits",
      "outputs": [
        {
          "internalType": "uint256",
          "name": "amount",
          "type": "uint256"
        },
        {
          "internalType": "uint256",
          "name": "insuredAmount",
          "type": "uint256"
        }
      ],
      "stateMutability": "view",
      "type": "function",
      "constant": true
    },
    {
      "inputs": [],
      "name": "insuranceLimit",
      "outputs": [
        {
          "internalType": "uint256",
          "name": "",
          "type": "uint256"
        }
      ],
      "stateMutability": "view",
      "type": "function",
      "constant": true
    },
    {
      "inputs": [],
      "name": "regulator",
      "outputs": [
        {
          "internalType": "address",
          "name": "",
          "type": "address"
        }
      ],
      "stateMutability": "view",
      "type": "function",
      "constant": true
    },
    {
      "stateMutability": "payable",
      "type": "receive",
      "payable": true
    },
    {
      "inputs": [
        {
          "internalType": "address",
          "name": "_bank",
          "type": "address"
        }
      ],
      "name": "registerBank",
      "outputs": [],
      "stateMutability": "nonpayable",
      "type": "function"
    },
    {
      "inputs": [
        {
          "internalType": "address",
          "name": "_bank",
          "type": "address"
        }
      ],
      "name": "deposit",
      "outputs": [],
      "stateMutability": "payable",
      "type": "function",
      "payable": true
    },
    {
      "inputs": [
        {
          "internalType": "address",
          "name": "_bank",
          "type": "address"
        }
      ],
      "name": "failBank",
      "outputs": [],
      "stateMutability": "nonpayable",
      "type": "function"
    },
    {
      "inputs": [
        {
          "internalType": "address",
          "name": "_bank",
          "type": "address"
        }
      ],
      "name": "claimInsurance",
      "outputs": [],
      "stateMutability": "nonpayable",
      "type": "function"
    },
    {
      "inputs": [],
      "name": "getInsurancePoolBalance",
      "outputs": [
        {
          "internalType": "uint256",
          "name": "",
          "type": "uint256"
        }
      ],
      "stateMutability": "view",
      "type": "function",
      "constant": true
    }
  ],
  "bytecode": "0x60806040526934f086f3b33b6840000060015534801561001e57600080fd5b50336000806101000a81548173ffffffffffffffffffffffffffffffffffffffff021916908373ffffffffffffffffffffffffffffffffffffffff1602179055506110cc8061006e6000396000f3fe60806040526004361061008a5760003560e01c80638f601f66116100595780638f601f6614610152578063c367229914610190578063dd8fee14146101b9578063e4e5a3d1146101e4578063f340fa011461020f57610091565b80631239c2711461009657806316e572c0146100bf5780635e01426f146100ea57806380c3b8c21461011357610091565b3661009157005b600080fd5b3480156100a257600080fd5b506100bd60048036038101906100b89190610c73565b61022b565b005b3480156100cb57600080fd5b506100d46104b6565b6040516100e19190610f5d565b60405180910390f35b3480156100f657600080fd5b50610111600480360381019061010c9190610c73565b6104be565b005b34801561011f57600080fd5b5061013a60048036038101906101359190610c73565b61067c565b60405161014993929190610e86565b60405180910390f35b34801561015e57600080fd5b5061017960048036038101906101749190610c9c565b6106c0565b604051610187929190610f78565b60405180910390f35b34801561019c57600080fd5b506101b760048036038101906101b29190610c73565b6106f1565b005b3480156101c557600080fd5b506101ce610820565b6040516101db9190610e6b565b60405180910390f35b3480156101f057600080fd5b506101f9610844565b6040516102069190610f5d565b60405180910390f35b61022960048036038101906102249190610c73565b61084a565b005b600260008273ffffffffffffffffffffffffffffffffffffffff1673ffffffffffffffffffffffffffffffffffffffff16815260200190815260200160002060000160019054906101000a900460ff166102ba576040517f08c379a00000000000000000000000000000000000000000000000000000000081526004016102b190610edd565b60405180910390fd5b6000600360003373ffffffffffffffffffffffffffffffffffffffff1673ffffffffffffffffffffffffffffffffffffffff16815260200190815260200160002060008373ffffffffffffffffffffffffffffffffffffffff1673ffffffffffffffffffffffffffffffffffffffff16815260200190815260200160002060010154905060008111610381576040517f08c379a000000000000000000000000000000000000000000000000000000000815260040161037890610ebd565b60405180910390fd5b6000600360003373ffffffffffffffffffffffffffffffffffffffff1673ffffffffffffffffffffffffffffffffffffffff16815260200190815260200160002060008473ffffffffffffffffffffffffffffffffffffffff1673ffffffffffffffffffffffffffffffffffffffff168152602001908152602001600020600101819055503373ffffffffffffffffffffffffffffffffffffffff166108fc829081150290604051600060405180830381858888f1935050505015801561044c573d6000803e3d6000fd5b508173ffffffffffffffffffffffffffffffffffffffff163373ffffffffffffffffffffffffffffffffffffffff167f78e04c81b764ae74a7ba0d7de58b2f955845aab3995a95237d46404b2526a54e836040516104aa9190610f5d565b60405180910390a35050565b600047905090565b60008054906101000a900473ffffffffffffffffffffffffffffffffffffffff1673ffffffffffffffffffffffffffffffffffffffff163373ffffffffffffffffffffffffffffffffffffffff161461054c576040517f08c379a000000000000000000000000000000000000000000000000000000000815260040161054390610efd565b60405180910390fd5b600260008273ffffffffffffffffffffffffffffffffffffffff1673ffffffffffffffffffffffffffffffffffffffff16815260200190815260200160002060000160009054906101000a900460ff166105db576040517f08c379a00000000000000000000000000000000000000000000000000000000081526004016105d290610f3d565b60405180910390fd5b6001600260008373ffffffffffffffffffffffffffffffffffffffff1673ffffffffffffffffffffffffffffffffffffffff16815260200190815260200160002060000160016101000a81548160ff0219169083151502179055508073ffffffffffffffffffffffffffffffffffffffff167f7f68dd0ffc239a74f0906890f089856577db0e414437571ee5da78441f7222fe60405160405180910390a250565b60026020528060005260406000206000915090508060000160009054906101000a900460ff16908060000160019054906101000a900460ff16908060010154905083565b6003602052816000526040600020602052806000526040600020600091509150508060000154908060010154905082565b60008054906101000a900473ffffffffffffffffffffffffffffffffffffffff1673ffffffffffffffffffffffffffffffffffffffff163373ffffffffffffffffffffffffffffffffffffffff161461077f576040517f08c379a000000000000000000000000000000000000000000000000000000000815260040161077690610efd565b60405180910390fd5b6001600260008373ffffffffffffffffffffffffffffffffffffffff1673ffffffffffffffffffffffffffffffffffffffff16815260200190815260200160002060000160006101000a81548160ff0219169083151502179055508073ffffffffffffffffffffffffffffffffffffffff167f4a6deab8cf14a40f9388fd118ec277f31a67b616473839fa23330a3ef9e1dc0560405160405180910390a250565b60008054906101000a900473ffffffffffffffffffffffffffffffffffffffff1681565b60015481565b600260008273ffffffffffffffffffffffffffffffffffffffff1673ffffffffffffffffffffffffffffffffffffffff16815260200190815260200160002060000160009054906101000a900460ff166108d9576040517f08c379a00000000000000000000000000000000000000000000000000000000081526004016108d090610f3d565b60405180910390fd5b600260008273ffffffffffffffffffffffffffffffffffffffff1673ffffffffffffffffffffffffffffffffffffffff16815260200190815260200160002060000160019054906101000a900460ff1615610969576040517f08c379a000000000000000000000000000000000000000000000000000000000815260040161096090610f1d565b60405180910390fd5b34600360003373ffffffffffffffffffffffffffffffffffffffff1673ffffffffffffffffffffffffffffffffffffffff16815260200190815260200160002060008373ffffffffffffffffffffffffffffffffffffffff1673ffffffffffffffffffffffffffffffffffffffff16815260200190815260200160002060000160008282546109f89190610fb2565b9250508190555034600260008373ffffffffffffffffffffffffffffffffffffffff1673ffffffffffffffffffffffffffffffffffffffff1681526020019081526020016000206001016000828254610a519190610fb2565b925050819055506000600360003373ffffffffffffffffffffffffffffffffffffffff1673ffffffffffffffffffffffffffffffffffffffff16815260200190815260200160002060008373ffffffffffffffffffffffffffffffffffffffff1673ffffffffffffffffffffffffffffffffffffffff1681526020019081526020016000206000015490506001548111610b6e5780600360003373ffffffffffffffffffffffffffffffffffffffff1673ffffffffffffffffffffffffffffffffffffffff16815260200190815260200160002060008473ffffffffffffffffffffffffffffffffffffffff1673ffffffffffffffffffffffffffffffffffffffff16815260200190815260200160002060010181905550610bf5565b600154600360003373ffffffffffffffffffffffffffffffffffffffff1673ffffffffffffffffffffffffffffffffffffffff16815260200190815260200160002060008473ffffffffffffffffffffffffffffffffffffffff1673ffffffffffffffffffffffffffffffffffffffff168152602001908152602001600020600101819055505b8173ffffffffffffffffffffffffffffffffffffffff163373ffffffffffffffffffffffffffffffffffffffff167f1de3ece35391f6bba650736f2d5d3f12e2cfc54538a340cc5d762d34ca449de734604051610c529190610f5d565b60405180910390a35050565b600081359050610c6d8161107f565b92915050565b600060208284031215610c8557600080fd5b6000610c9384828501610c5e565b91505092915050565b60008060408385031215610caf57600080fd5b6000610cbd85828601610c5e565b9250506020610cce85828601610c5e565b9150509250929050565b610ce181611008565b82525050565b610cf08161101a565b82525050565b6000610d03601a83610fa1565b91507f4e6f20696e737572656420616d6f756e7420746f20636c61696d0000000000006000830152602082019050919050565b6000610d43601383610fa1565b91507f42616e6b20686173206e6f74206661696c6564000000000000000000000000006000830152602082019050919050565b6000610d83602683610fa1565b91507f4f6e6c7920726567756c61746f722063616e20706572666f726d20746869732060008301527f616374696f6e00000000000000000000000000000000000000000000000000006020830152604082019050919050565b6000610de9600f83610fa1565b91507f42616e6b20686173206661696c656400000000000000000000000000000000006000830152602082019050919050565b6000610e29601683610fa1565b91507f42616e6b206973206e6f742072656769737465726564000000000000000000006000830152602082019050919050565b610e6581611046565b82525050565b6000602082019050610e806000830184610cd8565b92915050565b6000606082019050610e9b6000830186610ce7565b610ea86020830185610ce7565b610eb56040830184610e5c565b949350505050565b60006020820190508181036000830152610ed681610cf6565b9050919050565b60006020820190508181036000830152610ef681610d36565b9050919050565b60006020820190508181036000830152610f1681610d76565b9050919050565b60006020820190508181036000830152610f3681610ddc565b9050919050565b60006020820190508181036000830152610f5681610e1c565b9050919050565b6000602082019050610f726000830184610e5c565b92915050565b6000604082019050610f8d6000830185610e5c565b610f9a6020830184610e5c565b9392505050565b600082825260208201905092915050565b6000610fbd82611046565b9150610fc883611046565b9250827fffffffffffffffffffffffffffffffffffffffffffffffffffffffffffffffff03821115610ffd57610ffc611050565b5b828201905092915050565b600061101382611026565b9050919050565b60008115159050919050565b600073ffffffffffffffffffffffffffffffffffffffff82169050919050565b6000819050919050565b7f4e487b7100000000000000000000000000000000000000000000000000000000600052601160045260246000fd5b61108881611008565b811461109357600080fd5b5056fea26469706673582212202bfcf158e338375c81da5ed30024330ce496de115c79227f5105196d990c472264736f6c63430008000033",
  "immutableReferences": {},
  "source": "// SPDX-License-Identifier: MIT\npragma solidity ^0.8.0;\n\ncontract OnChainFDIC {\n    struct Bank {\n        bool isRegistered;\n        bool isFailed;\n        uint256 totalDeposits;\n    }\n\n    struct Depositor {\n        uint256 amount;\n        uint256 insuredAmount;\n    }\n\n    address public regulator;\n    uint256 public insuranceLimit = 250000 ether; // Insurance limit\n    mapping(address => Bank) public banks;\n    mapping(address => mapping(address => Depositor)) public deposits; // depositor => bank => Depositor\n\n    event BankRegistered(address indexed bank);\n    event DepositMade(address indexed depositor, address indexed bank, uint256 amount);\n    event BankFailed(address indexed bank);\n    event CompensationPaid(address indexed depositor, address indexed bank, uint256 amount);\n\n    modifier onlyRegulator() {\n        require(msg.sender == regulator, \"Only regulator can perform this action\");\n        _;\n    }\n\n    constructor() {\n        regulator = msg.sender;\n    }\n\n    // Function for regulator to register banks\n    function registerBank(address _bank) external onlyRegulator {\n        banks[_bank].isRegistered = true;\n        emit BankRegistered(_bank);\n    }\n\n    // Depositors deposit funds into banks\n    function deposit(address _bank) external payable {\n        require(banks[_bank].isRegistered, \"Bank is not registered\");\n        require(!banks[_bank].isFailed, \"Bank has failed\");\n\n        deposits[msg.sender][_bank].amount += msg.value;\n        banks[_bank].totalDeposits += msg.value;\n\n        // Calculate insured amount (up to insurance limit)\n        uint256 totalDeposited = deposits[msg.sender][_bank].amount;\n        if (totalDeposited <= insuranceLimit) {\n            deposits[msg.sender][_bank].insuredAmount = totalDeposited;\n        } else {\n            deposits[msg.sender][_bank].insuredAmount = insuranceLimit;\n        }\n\n        emit DepositMade(msg.sender, _bank, msg.value);\n    }\n\n    // Regulator marks bank as failed\n    function failBank(address _bank) external onlyRegulator {\n        require(banks[_bank].isRegistered, \"Bank is not registered\");\n        banks[_bank].isFailed = true;\n        emit BankFailed(_bank);\n    }\n\n    // Depositors claim insurance after bank failure\n    function claimInsurance(address _bank) external {\n        require(banks[_bank].isFailed, \"Bank has not failed\");\n        uint256 compensation = deposits[msg.sender][_bank].insuredAmount;\n        require(compensation > 0, \"No insured amount to claim\");\n\n        // Reset depositor's insured amount to prevent re-entrancy\n        deposits[msg.sender][_bank].insuredAmount = 0;\n\n        // Pay compensation\n        payable(msg.sender).transfer(compensation);\n        emit CompensationPaid(msg.sender, _bank, compensation);\n    }\n\n    // Function to fund the insurance pool (could be from bank premiums)\n    receive() external payable {}\n\n    // Function to check the contract balance (insurance pool)\n    function getInsurancePoolBalance() external view returns (uint256) {\n        return address(this).balance;\n    }\n}",
  "sourcePath": "/Users/stevederezinski2/Documents/GitHub/fdic-dapp/contracts/OnChainFDIC.sol",
  "compiler": {
    "name": "solc",
    "version": "0.8.0+commit.c7dfd78e.Emscripten.clang"
  },
  "schemaVersion": "3.4.0",
  "updatedAt": "2024-09-15T16:46:59.014Z",
  "networkType": "ethereum",
  "devdoc": {
    "kind": "dev",
    "methods": {},
    "version": 1
  },
  "userdoc": {
    "kind": "user",
    "methods": {},
    "version": 1
  }
}